{
  "contracts/ruggy-library/test/BabylonianEchidnaTest.sol": {
    "BabylonianEchidnaTest": {
      "abi": [
        {
          "inputs": [],
          "name": "echidna_sqrtAlwaysLessThanMaxUint128",
          "outputs": [
            {
              "internalType": "bool",
              "name": "",
              "type": "bool"
            }
          ],
          "stateMutability": "view",
          "type": "function"
        },
        {
          "inputs": [],
          "name": "echidna_sqrtPlusOneSquaredAlwaysGtInput",
          "outputs": [
            {
              "internalType": "bool",
              "name": "",
              "type": "bool"
            }
          ],
          "stateMutability": "view",
          "type": "function"
        },
        {
          "inputs": [],
          "name": "echidna_sqrtSquaredAlwaysLteInput",
          "outputs": [
            {
              "internalType": "bool",
              "name": "",
              "type": "bool"
            }
          ],
          "stateMutability": "view",
          "type": "function"
        },
        {
          "inputs": [
            {
              "internalType": "uint256",
              "name": "input_",
              "type": "uint256"
            }
          ],
          "name": "storeSqrt",
          "outputs": [],
          "stateMutability": "nonpayable",
          "type": "function"
        }
      ],
      "evm": {
        "bytecode": {
          "linkReferences": {},
          "object": "608060405234801561001057600080fd5b5061023a806100206000396000f3fe608060405234801561001057600080fd5b506004361061004c5760003560e01c80632ffab2721461005157806373b3179e1461006f578063ccedcf5d14610084578063cd3ec77a1461008c575b600080fd5b610059610094565b604051610066919061018c565b60405180910390f35b61008261007d366004610174565b6100ad565b005b6100596100c1565b6100596100ec565b6001547001000000000000000000000000000000001190565b60008190556100bb81610104565b60015550565b60008060015460016100d39190610197565b905060006100e182806101cf565b600054109250505090565b600080546001546100fd90806101cf565b1115905090565b60006003821115610165575080600061011e6002836101af565b610129906001610197565b90505b8181101561015f5790508060028161014481866101af565b61014e9190610197565b61015891906101af565b905061012c565b5061016f565b811561016f575060015b919050565b600060208284031215610185578081fd5b5035919050565b901515815260200190565b600082198211156101aa576101aa6101ee565b500190565b6000826101ca57634e487b7160e01b81526012600452602481fd5b500490565b60008160001904831182151516156101e9576101e96101ee565b500290565b634e487b7160e01b600052601160045260246000fdfea2646970667358221220870d487a5c2a4be41889967f36419a8b489504198f362ce9869a398abe08fd9164736f6c63430008000033",
          "opcodes": "PUSH1 0x80 PUSH1 0x40 MSTORE CALLVALUE DUP1 ISZERO PUSH2 0x10 JUMPI PUSH1 0x0 DUP1 REVERT JUMPDEST POP PUSH2 0x23A DUP1 PUSH2 0x20 PUSH1 0x0 CODECOPY PUSH1 0x0 RETURN INVALID PUSH1 0x80 PUSH1 0x40 MSTORE CALLVALUE DUP1 ISZERO PUSH2 0x10 JUMPI PUSH1 0x0 DUP1 REVERT JUMPDEST POP PUSH1 0x4 CALLDATASIZE LT PUSH2 0x4C JUMPI PUSH1 0x0 CALLDATALOAD PUSH1 0xE0 SHR DUP1 PUSH4 0x2FFAB272 EQ PUSH2 0x51 JUMPI DUP1 PUSH4 0x73B3179E EQ PUSH2 0x6F JUMPI DUP1 PUSH4 0xCCEDCF5D EQ PUSH2 0x84 JUMPI DUP1 PUSH4 0xCD3EC77A EQ PUSH2 0x8C JUMPI JUMPDEST PUSH1 0x0 DUP1 REVERT JUMPDEST PUSH2 0x59 PUSH2 0x94 JUMP JUMPDEST PUSH1 0x40 MLOAD PUSH2 0x66 SWAP2 SWAP1 PUSH2 0x18C JUMP JUMPDEST PUSH1 0x40 MLOAD DUP1 SWAP2 SUB SWAP1 RETURN JUMPDEST PUSH2 0x82 PUSH2 0x7D CALLDATASIZE PUSH1 0x4 PUSH2 0x174 JUMP JUMPDEST PUSH2 0xAD JUMP JUMPDEST STOP JUMPDEST PUSH2 0x59 PUSH2 0xC1 JUMP JUMPDEST PUSH2 0x59 PUSH2 0xEC JUMP JUMPDEST PUSH1 0x1 SLOAD PUSH17 0x100000000000000000000000000000000 GT SWAP1 JUMP JUMPDEST PUSH1 0x0 DUP2 SWAP1 SSTORE PUSH2 0xBB DUP2 PUSH2 0x104 JUMP JUMPDEST PUSH1 0x1 SSTORE POP JUMP JUMPDEST PUSH1 0x0 DUP1 PUSH1 0x1 SLOAD PUSH1 0x1 PUSH2 0xD3 SWAP2 SWAP1 PUSH2 0x197 JUMP JUMPDEST SWAP1 POP PUSH1 0x0 PUSH2 0xE1 DUP3 DUP1 PUSH2 0x1CF JUMP JUMPDEST PUSH1 0x0 SLOAD LT SWAP3 POP POP POP SWAP1 JUMP JUMPDEST PUSH1 0x0 DUP1 SLOAD PUSH1 0x1 SLOAD PUSH2 0xFD SWAP1 DUP1 PUSH2 0x1CF JUMP JUMPDEST GT ISZERO SWAP1 POP SWAP1 JUMP JUMPDEST PUSH1 0x0 PUSH1 0x3 DUP3 GT ISZERO PUSH2 0x165 JUMPI POP DUP1 PUSH1 0x0 PUSH2 0x11E PUSH1 0x2 DUP4 PUSH2 0x1AF JUMP JUMPDEST PUSH2 0x129 SWAP1 PUSH1 0x1 PUSH2 0x197 JUMP JUMPDEST SWAP1 POP JUMPDEST DUP2 DUP2 LT ISZERO PUSH2 0x15F JUMPI SWAP1 POP DUP1 PUSH1 0x2 DUP2 PUSH2 0x144 DUP2 DUP7 PUSH2 0x1AF JUMP JUMPDEST PUSH2 0x14E SWAP2 SWAP1 PUSH2 0x197 JUMP JUMPDEST PUSH2 0x158 SWAP2 SWAP1 PUSH2 0x1AF JUMP JUMPDEST SWAP1 POP PUSH2 0x12C JUMP JUMPDEST POP PUSH2 0x16F JUMP JUMPDEST DUP2 ISZERO PUSH2 0x16F JUMPI POP PUSH1 0x1 JUMPDEST SWAP2 SWAP1 POP JUMP JUMPDEST PUSH1 0x0 PUSH1 0x20 DUP3 DUP5 SUB SLT ISZERO PUSH2 0x185 JUMPI DUP1 DUP2 REVERT JUMPDEST POP CALLDATALOAD SWAP2 SWAP1 POP JUMP JUMPDEST SWAP1 ISZERO ISZERO DUP2 MSTORE PUSH1 0x20 ADD SWAP1 JUMP JUMPDEST PUSH1 0x0 DUP3 NOT DUP3 GT ISZERO PUSH2 0x1AA JUMPI PUSH2 0x1AA PUSH2 0x1EE JUMP JUMPDEST POP ADD SWAP1 JUMP JUMPDEST PUSH1 0x0 DUP3 PUSH2 0x1CA JUMPI PUSH4 0x4E487B71 PUSH1 0xE0 SHL DUP2 MSTORE PUSH1 0x12 PUSH1 0x4 MSTORE PUSH1 0x24 DUP2 REVERT JUMPDEST POP DIV SWAP1 JUMP JUMPDEST PUSH1 0x0 DUP2 PUSH1 0x0 NOT DIV DUP4 GT DUP3 ISZERO ISZERO AND ISZERO PUSH2 0x1E9 JUMPI PUSH2 0x1E9 PUSH2 0x1EE JUMP JUMPDEST POP MUL SWAP1 JUMP JUMPDEST PUSH4 0x4E487B71 PUSH1 0xE0 SHL PUSH1 0x0 MSTORE PUSH1 0x11 PUSH1 0x4 MSTORE PUSH1 0x24 PUSH1 0x0 REVERT INVALID LOG2 PUSH5 0x6970667358 0x22 SLT KECCAK256 DUP8 0xD 0x48 PUSH27 0x5C2A4BE41889967F36419A8B489504198F362CE9869A398ABE08FD SWAP2 PUSH5 0x736F6C6343 STOP ADDMOD STOP STOP CALLER "
        },
        "methodIdentifiers": {
          "echidna_sqrtAlwaysLessThanMaxUint128()": "2ffab272",
          "echidna_sqrtPlusOneSquaredAlwaysGtInput()": "ccedcf5d",
          "echidna_sqrtSquaredAlwaysLteInput()": "cd3ec77a",
          "storeSqrt(uint256)": "73b3179e"
        }
      },
      "storageLayout": {
        "storage": [
          {
            "astId": 742,
            "contract": "contracts/ruggy-library/test/BabylonianEchidnaTest.sol:BabylonianEchidnaTest",
            "label": "input",
            "offset": 0,
            "slot": "0",
            "type": "t_uint256"
          },
          {
            "astId": 744,
            "contract": "contracts/ruggy-library/test/BabylonianEchidnaTest.sol:BabylonianEchidnaTest",
            "label": "sqrt",
            "offset": 0,
            "slot": "1",
            "type": "t_uint256"
          }
        ],
        "types": {
          "t_uint256": {
            "encoding": "inplace",
            "label": "uint256",
            "numberOfBytes": "32"
          }
        }
      }
    }
  }
}