{
  "contracts/ruggy-library/test/BabylonianTest.sol": {
    "BabylonianTest": {
      "abi": [
        {
          "inputs": [
            {
              "internalType": "uint256",
              "name": "num",
              "type": "uint256"
            }
          ],
          "name": "sqrt",
          "outputs": [
            {
              "internalType": "uint256",
              "name": "",
              "type": "uint256"
            }
          ],
          "stateMutability": "pure",
          "type": "function"
        }
      ],
      "evm": {
        "bytecode": {
          "linkReferences": {},
          "object": "608060405234801561001057600080fd5b50610176806100206000396000f3fe608060405234801561001057600080fd5b506004361061002b5760003560e01c8063677342ce14610030575b600080fd5b61004361003e3660046100db565b610059565b60405161005091906100f3565b60405180910390f35b60006100648261006c565b90505b919050565b600060038211156100cd5750806000610086600283610120565b6100919060016100fc565b90505b818110156100c7579050806002816100ac8186610120565b6100b691906100fc565b6100c09190610120565b9050610094565b50610067565b811561006757506001919050565b6000602082840312156100ec578081fd5b5035919050565b90815260200190565b6000821982111561011b57634e487b7160e01b81526011600452602481fd5b500190565b60008261013b57634e487b7160e01b81526012600452602481fd5b50049056fea2646970667358221220c9fb1dbc1a9150784f867300ea45d7e4406f9a6cd5170ddbcce0cceadd74b9c864736f6c63430008000033",
          "opcodes": "PUSH1 0x80 PUSH1 0x40 MSTORE CALLVALUE DUP1 ISZERO PUSH2 0x10 JUMPI PUSH1 0x0 DUP1 REVERT JUMPDEST POP PUSH2 0x176 DUP1 PUSH2 0x20 PUSH1 0x0 CODECOPY PUSH1 0x0 RETURN INVALID PUSH1 0x80 PUSH1 0x40 MSTORE CALLVALUE DUP1 ISZERO PUSH2 0x10 JUMPI PUSH1 0x0 DUP1 REVERT JUMPDEST POP PUSH1 0x4 CALLDATASIZE LT PUSH2 0x2B JUMPI PUSH1 0x0 CALLDATALOAD PUSH1 0xE0 SHR DUP1 PUSH4 0x677342CE EQ PUSH2 0x30 JUMPI JUMPDEST PUSH1 0x0 DUP1 REVERT JUMPDEST PUSH2 0x43 PUSH2 0x3E CALLDATASIZE PUSH1 0x4 PUSH2 0xDB JUMP JUMPDEST PUSH2 0x59 JUMP JUMPDEST PUSH1 0x40 MLOAD PUSH2 0x50 SWAP2 SWAP1 PUSH2 0xF3 JUMP JUMPDEST PUSH1 0x40 MLOAD DUP1 SWAP2 SUB SWAP1 RETURN JUMPDEST PUSH1 0x0 PUSH2 0x64 DUP3 PUSH2 0x6C JUMP JUMPDEST SWAP1 POP JUMPDEST SWAP2 SWAP1 POP JUMP JUMPDEST PUSH1 0x0 PUSH1 0x3 DUP3 GT ISZERO PUSH2 0xCD JUMPI POP DUP1 PUSH1 0x0 PUSH2 0x86 PUSH1 0x2 DUP4 PUSH2 0x120 JUMP JUMPDEST PUSH2 0x91 SWAP1 PUSH1 0x1 PUSH2 0xFC JUMP JUMPDEST SWAP1 POP JUMPDEST DUP2 DUP2 LT ISZERO PUSH2 0xC7 JUMPI SWAP1 POP DUP1 PUSH1 0x2 DUP2 PUSH2 0xAC DUP2 DUP7 PUSH2 0x120 JUMP JUMPDEST PUSH2 0xB6 SWAP2 SWAP1 PUSH2 0xFC JUMP JUMPDEST PUSH2 0xC0 SWAP2 SWAP1 PUSH2 0x120 JUMP JUMPDEST SWAP1 POP PUSH2 0x94 JUMP JUMPDEST POP PUSH2 0x67 JUMP JUMPDEST DUP2 ISZERO PUSH2 0x67 JUMPI POP PUSH1 0x1 SWAP2 SWAP1 POP JUMP JUMPDEST PUSH1 0x0 PUSH1 0x20 DUP3 DUP5 SUB SLT ISZERO PUSH2 0xEC JUMPI DUP1 DUP2 REVERT JUMPDEST POP CALLDATALOAD SWAP2 SWAP1 POP JUMP JUMPDEST SWAP1 DUP2 MSTORE PUSH1 0x20 ADD SWAP1 JUMP JUMPDEST PUSH1 0x0 DUP3 NOT DUP3 GT ISZERO PUSH2 0x11B JUMPI PUSH4 0x4E487B71 PUSH1 0xE0 SHL DUP2 MSTORE PUSH1 0x11 PUSH1 0x4 MSTORE PUSH1 0x24 DUP2 REVERT JUMPDEST POP ADD SWAP1 JUMP JUMPDEST PUSH1 0x0 DUP3 PUSH2 0x13B JUMPI PUSH4 0x4E487B71 PUSH1 0xE0 SHL DUP2 MSTORE PUSH1 0x12 PUSH1 0x4 MSTORE PUSH1 0x24 DUP2 REVERT JUMPDEST POP DIV SWAP1 JUMP INVALID LOG2 PUSH5 0x6970667358 0x22 SLT KECCAK256 0xC9 0xFB SAR 0xBC BYTE SWAP2 POP PUSH25 0x4F867300EA45D7E4406F9A6CD5170DDBCCE0CCEADD74B9C864 PUSH20 0x6F6C634300080000330000000000000000000000 "
        },
        "methodIdentifiers": {
          "sqrt(uint256)": "677342ce"
        }
      },
      "storageLayout": {
        "storage": [],
        "types": null
      }
    }
  }
}