{
  "contracts/ruggy-library/test/TransferHelperTest.sol": {
    "TransferHelperTestFakeFallback": {
      "abi": [
        {
          "inputs": [
            {
              "internalType": "bool",
              "name": "shouldRevert_",
              "type": "bool"
            }
          ],
          "name": "setup",
          "outputs": [],
          "stateMutability": "nonpayable",
          "type": "function"
        },
        {
          "inputs": [],
          "name": "shouldRevert",
          "outputs": [
            {
              "internalType": "bool",
              "name": "",
              "type": "bool"
            }
          ],
          "stateMutability": "view",
          "type": "function"
        },
        {
          "inputs": [],
          "name": "withdraw",
          "outputs": [],
          "stateMutability": "nonpayable",
          "type": "function"
        },
        {
          "stateMutability": "payable",
          "type": "receive"
        }
      ],
      "evm": {
        "bytecode": {
          "linkReferences": {},
          "object": "608060405234801561001057600080fd5b5061012d806100206000396000f3fe60806040526004361060335760003560e01c80633ccfd60b14604d578063d3072d8214605f578063e2c169ec146085576048565b3660485760005460ff1615604657600080fd5b005b600080fd5b348015605857600080fd5b50604660ad565b348015606a57600080fd5b50607160db565b604080519115158252519081900360200190f35b348015609057600080fd5b5060466004803603602081101560a557600080fd5b5035151560e4565b60405133904780156108fc02916000818181858888f1935050505015801560d8573d6000803e3d6000fd5b50565b60005460ff1681565b6000805460ff191691151591909117905556fea2646970667358221220cfbbcae1ae479622ce82d1cc14c1ba1e9e82282c48ca15abe844263b66b609b464736f6c63430007060033",
          "opcodes": "PUSH1 0x80 PUSH1 0x40 MSTORE CALLVALUE DUP1 ISZERO PUSH2 0x10 JUMPI PUSH1 0x0 DUP1 REVERT JUMPDEST POP PUSH2 0x12D DUP1 PUSH2 0x20 PUSH1 0x0 CODECOPY PUSH1 0x0 RETURN INVALID PUSH1 0x80 PUSH1 0x40 MSTORE PUSH1 0x4 CALLDATASIZE LT PUSH1 0x33 JUMPI PUSH1 0x0 CALLDATALOAD PUSH1 0xE0 SHR DUP1 PUSH4 0x3CCFD60B EQ PUSH1 0x4D JUMPI DUP1 PUSH4 0xD3072D82 EQ PUSH1 0x5F JUMPI DUP1 PUSH4 0xE2C169EC EQ PUSH1 0x85 JUMPI PUSH1 0x48 JUMP JUMPDEST CALLDATASIZE PUSH1 0x48 JUMPI PUSH1 0x0 SLOAD PUSH1 0xFF AND ISZERO PUSH1 0x46 JUMPI PUSH1 0x0 DUP1 REVERT JUMPDEST STOP JUMPDEST PUSH1 0x0 DUP1 REVERT JUMPDEST CALLVALUE DUP1 ISZERO PUSH1 0x58 JUMPI PUSH1 0x0 DUP1 REVERT JUMPDEST POP PUSH1 0x46 PUSH1 0xAD JUMP JUMPDEST CALLVALUE DUP1 ISZERO PUSH1 0x6A JUMPI PUSH1 0x0 DUP1 REVERT JUMPDEST POP PUSH1 0x71 PUSH1 0xDB JUMP JUMPDEST PUSH1 0x40 DUP1 MLOAD SWAP2 ISZERO ISZERO DUP3 MSTORE MLOAD SWAP1 DUP2 SWAP1 SUB PUSH1 0x20 ADD SWAP1 RETURN JUMPDEST CALLVALUE DUP1 ISZERO PUSH1 0x90 JUMPI PUSH1 0x0 DUP1 REVERT JUMPDEST POP PUSH1 0x46 PUSH1 0x4 DUP1 CALLDATASIZE SUB PUSH1 0x20 DUP2 LT ISZERO PUSH1 0xA5 JUMPI PUSH1 0x0 DUP1 REVERT JUMPDEST POP CALLDATALOAD ISZERO ISZERO PUSH1 0xE4 JUMP JUMPDEST PUSH1 0x40 MLOAD CALLER SWAP1 SELFBALANCE DUP1 ISZERO PUSH2 0x8FC MUL SWAP2 PUSH1 0x0 DUP2 DUP2 DUP2 DUP6 DUP9 DUP9 CALL SWAP4 POP POP POP POP ISZERO DUP1 ISZERO PUSH1 0xD8 JUMPI RETURNDATASIZE PUSH1 0x0 DUP1 RETURNDATACOPY RETURNDATASIZE PUSH1 0x0 REVERT JUMPDEST POP JUMP JUMPDEST PUSH1 0x0 SLOAD PUSH1 0xFF AND DUP2 JUMP JUMPDEST PUSH1 0x0 DUP1 SLOAD PUSH1 0xFF NOT AND SWAP2 ISZERO ISZERO SWAP2 SWAP1 SWAP2 OR SWAP1 SSTORE JUMP INVALID LOG2 PUSH5 0x6970667358 0x22 SLT KECCAK256 0xCF 0xBB 0xCA 0xE1 0xAE SELFBALANCE SWAP7 0x22 0xCE DUP3 0xD1 0xCC EQ 0xC1 0xBA 0x1E SWAP15 DUP3 0x28 0x2C 0x48 0xCA ISZERO 0xAB 0xE8 DIFFICULTY 0x26 EXTCODESIZE PUSH7 0xB609B464736F6C PUSH4 0x43000706 STOP CALLER "
        },
        "methodIdentifiers": {
          "setup(bool)": "e2c169ec",
          "shouldRevert()": "d3072d82",
          "withdraw()": "3ccfd60b"
        }
      },
      "storageLayout": {
        "storage": [
          {
            "astId": 1766,
            "contract": "contracts/ruggy-library/test/TransferHelperTest.sol:TransferHelperTestFakeFallback",
            "label": "shouldRevert",
            "offset": 0,
            "slot": "0",
            "type": "t_bool"
          }
        ],
        "types": {
          "t_bool": {
            "encoding": "inplace",
            "label": "bool",
            "numberOfBytes": "1"
          }
        }
      }
    }
  }
}