{
  "contracts/ruggy-library/test/FixedPointTest.sol": {
    "FixedPointTest": {
      "abi": [
        {
          "inputs": [
            {
              "components": [
                {
                  "internalType": "uint224",
                  "name": "_x",
                  "type": "uint224"
                }
              ],
              "internalType": "struct FixedPoint.uq112x112",
              "name": "self",
              "type": "tuple"
            }
          ],
          "name": "decode",
          "outputs": [
            {
              "internalType": "uint112",
              "name": "",
              "type": "uint112"
            }
          ],
          "stateMutability": "pure",
          "type": "function"
        },
        {
          "inputs": [
            {
              "components": [
                {
                  "internalType": "uint256",
                  "name": "_x",
                  "type": "uint256"
                }
              ],
              "internalType": "struct FixedPoint.uq144x112",
              "name": "self",
              "type": "tuple"
            }
          ],
          "name": "decode144",
          "outputs": [
            {
              "internalType": "uint144",
              "name": "",
              "type": "uint144"
            }
          ],
          "stateMutability": "pure",
          "type": "function"
        },
        {
          "inputs": [
            {
              "components": [
                {
                  "internalType": "uint224",
                  "name": "_x",
                  "type": "uint224"
                }
              ],
              "internalType": "struct FixedPoint.uq112x112",
              "name": "self",
              "type": "tuple"
            },
            {
              "components": [
                {
                  "internalType": "uint224",
                  "name": "_x",
                  "type": "uint224"
                }
              ],
              "internalType": "struct FixedPoint.uq112x112",
              "name": "other",
              "type": "tuple"
            }
          ],
          "name": "divuq",
          "outputs": [
            {
              "components": [
                {
                  "internalType": "uint224",
                  "name": "_x",
                  "type": "uint224"
                }
              ],
              "internalType": "struct FixedPoint.uq112x112",
              "name": "",
              "type": "tuple"
            }
          ],
          "stateMutability": "pure",
          "type": "function"
        },
        {
          "inputs": [
            {
              "internalType": "uint112",
              "name": "x",
              "type": "uint112"
            }
          ],
          "name": "encode",
          "outputs": [
            {
              "components": [
                {
                  "internalType": "uint224",
                  "name": "_x",
                  "type": "uint224"
                }
              ],
              "internalType": "struct FixedPoint.uq112x112",
              "name": "",
              "type": "tuple"
            }
          ],
          "stateMutability": "pure",
          "type": "function"
        },
        {
          "inputs": [
            {
              "internalType": "uint144",
              "name": "x",
              "type": "uint144"
            }
          ],
          "name": "encode144",
          "outputs": [
            {
              "components": [
                {
                  "internalType": "uint256",
                  "name": "_x",
                  "type": "uint256"
                }
              ],
              "internalType": "struct FixedPoint.uq144x112",
              "name": "",
              "type": "tuple"
            }
          ],
          "stateMutability": "pure",
          "type": "function"
        },
        {
          "inputs": [
            {
              "internalType": "uint112",
              "name": "numerator",
              "type": "uint112"
            },
            {
              "internalType": "uint112",
              "name": "denominator",
              "type": "uint112"
            }
          ],
          "name": "fraction",
          "outputs": [
            {
              "components": [
                {
                  "internalType": "uint224",
                  "name": "_x",
                  "type": "uint224"
                }
              ],
              "internalType": "struct FixedPoint.uq112x112",
              "name": "",
              "type": "tuple"
            }
          ],
          "stateMutability": "pure",
          "type": "function"
        },
        {
          "inputs": [
            {
              "components": [
                {
                  "internalType": "uint224",
                  "name": "_x",
                  "type": "uint224"
                }
              ],
              "internalType": "struct FixedPoint.uq112x112",
              "name": "self",
              "type": "tuple"
            },
            {
              "components": [
                {
                  "internalType": "uint224",
                  "name": "_x",
                  "type": "uint224"
                }
              ],
              "internalType": "struct FixedPoint.uq112x112",
              "name": "other",
              "type": "tuple"
            }
          ],
          "name": "getGasCostOfDivuq",
          "outputs": [
            {
              "internalType": "uint256",
              "name": "",
              "type": "uint256"
            }
          ],
          "stateMutability": "view",
          "type": "function"
        },
        {
          "inputs": [
            {
              "components": [
                {
                  "internalType": "uint224",
                  "name": "_x",
                  "type": "uint224"
                }
              ],
              "internalType": "struct FixedPoint.uq112x112",
              "name": "self",
              "type": "tuple"
            },
            {
              "internalType": "uint256",
              "name": "y",
              "type": "uint256"
            }
          ],
          "name": "mul",
          "outputs": [
            {
              "components": [
                {
                  "internalType": "uint256",
                  "name": "_x",
                  "type": "uint256"
                }
              ],
              "internalType": "struct FixedPoint.uq144x112",
              "name": "",
              "type": "tuple"
            }
          ],
          "stateMutability": "pure",
          "type": "function"
        },
        {
          "inputs": [
            {
              "components": [
                {
                  "internalType": "uint224",
                  "name": "_x",
                  "type": "uint224"
                }
              ],
              "internalType": "struct FixedPoint.uq112x112",
              "name": "self",
              "type": "tuple"
            },
            {
              "internalType": "int256",
              "name": "y",
              "type": "int256"
            }
          ],
          "name": "muli",
          "outputs": [
            {
              "internalType": "int256",
              "name": "",
              "type": "int256"
            }
          ],
          "stateMutability": "pure",
          "type": "function"
        },
        {
          "inputs": [
            {
              "components": [
                {
                  "internalType": "uint224",
                  "name": "_x",
                  "type": "uint224"
                }
              ],
              "internalType": "struct FixedPoint.uq112x112",
              "name": "self",
              "type": "tuple"
            },
            {
              "components": [
                {
                  "internalType": "uint224",
                  "name": "_x",
                  "type": "uint224"
                }
              ],
              "internalType": "struct FixedPoint.uq112x112",
              "name": "other",
              "type": "tuple"
            }
          ],
          "name": "muluq",
          "outputs": [
            {
              "components": [
                {
                  "internalType": "uint224",
                  "name": "_x",
                  "type": "uint224"
                }
              ],
              "internalType": "struct FixedPoint.uq112x112",
              "name": "",
              "type": "tuple"
            }
          ],
          "stateMutability": "pure",
          "type": "function"
        },
        {
          "inputs": [
            {
              "components": [
                {
                  "internalType": "uint224",
                  "name": "_x",
                  "type": "uint224"
                }
              ],
              "internalType": "struct FixedPoint.uq112x112",
              "name": "self",
              "type": "tuple"
            }
          ],
          "name": "reciprocal",
          "outputs": [
            {
              "components": [
                {
                  "internalType": "uint224",
                  "name": "_x",
                  "type": "uint224"
                }
              ],
              "internalType": "struct FixedPoint.uq112x112",
              "name": "",
              "type": "tuple"
            }
          ],
          "stateMutability": "pure",
          "type": "function"
        },
        {
          "inputs": [
            {
              "components": [
                {
                  "internalType": "uint224",
                  "name": "_x",
                  "type": "uint224"
                }
              ],
              "internalType": "struct FixedPoint.uq112x112",
              "name": "self",
              "type": "tuple"
            }
          ],
          "name": "sqrt",
          "outputs": [
            {
              "components": [
                {
                  "internalType": "uint224",
                  "name": "_x",
                  "type": "uint224"
                }
              ],
              "internalType": "struct FixedPoint.uq112x112",
              "name": "",
              "type": "tuple"
            }
          ],
          "stateMutability": "pure",
          "type": "function"
        }
      ],
      "evm": {
        "bytecode": {
          "linkReferences": {},
          "object": "608060405234801561001057600080fd5b50610fc4806100206000396000f3fe608060405234801561001057600080fd5b50600436106100d45760003560e01c80638925845111610081578063ca2d02991161005b578063ca2d0299146101ce578063ca74fcc0146101e1578063d993d379146101f4576100d4565b8063892584511461017b578063af35b7691461019b578063c814e314146101bb576100d4565b80634fd04a40116100b25780634fd04a40146101285780635a606689146101485780635f9f4c3b1461015b576100d4565b806331f92b13146100d95780633f1626c8146101025780634de4cf9214610115575b600080fd5b6100ec6100e7366004610d6e565b610207565b6040516100f99190610f09565b60405180910390f35b6100ec610110366004610d6e565b61022e565b6100ec610123366004610e9e565b61024d565b61013b610136366004610d6e565b610268565b6040516100f99190610f26565b6100ec610156366004610db3565b610281565b61016e610169366004610d6e565b6102af565b6040516100f99190610f41565b61018e610189366004610d89565b6102c8565b6040516100f99190610f00565b6101ae6101a9366004610de7565b6102e2565b6040516100f99190610f1c565b6101ae6101c9366004610ec7565b610302565b6100ec6101dc366004610e84565b610313565b6100ec6101ef366004610db3565b610324565b61018e610202366004610db3565b610352565b61020f610d14565b61022661022136849003840184610df9565b610384565b90505b919050565b610236610d14565b61022661024836849003840184610df9565b61042a565b610255610d14565b61025f8383610524565b90505b92915050565b600061022661027c36849003840184610df9565b6105ed565b610289610d14565b61025f61029b36859003850185610df9565b6102aa36859003850185610df9565b610604565b60006102266102c336849003840184610e49565b6107b1565b600061025f6102dc36859003850185610df9565b836107b8565b6102ea610d26565b61025f6102fc36859003850185610df9565b8361087a565b61030a610d26565b6102268261090e565b61031b610d14565b6102268261093e565b61032c610d14565b61025f61033e36859003850185610df9565b61034d36859003850185610df9565b61097b565b6000805a905061037961036a36869003860186610df9565b61034d36869003860186610df9565b505a90039392505050565b61038c610d14565b600182600001516001600160e01b0316116103d85760405162461bcd60e51b815260040180806020018281038252602e815260200180610f61602e913960400191505060405180910390fd5b604051806020016040528083600001516001600160e01b03167c01000000000000000000000000000000000000000000000000000000008161041657fe5b046001600160e01b03168152509050919050565b610432610d14565b815171ffffffffffffffffffffffffffffffffffff6001600160e01b039091161161048e57604051806020016040528061047c607085600001516001600160e01b0316901b610b86565b6001600160e01b031690529050610229565b60205b60708160ff1610156104d5578251600161ffff60011960ff85166101000301161b6001600160e01b0390911610156104cb576002016104d0565b6104d5565b610491565b604051806020016040528060028360700360ff16816104f057fe5b0460ff166105108460ff1687600001516001600160e01b0316901b610b86565b901b6001600160e01b031690529392505050565b61052c610d14565b6000826dffffffffffffffffffffffffffff1611610591576040805162461bcd60e51b815260206004820181905260248201527f4669786564506f696e743a204449565f42595f5a45524f5f4652414354494f4e604482015290519081900360640190fd5b6040805160208101909152806dffffffffffffffffffffffffffff84167bffffffffffffffffffffffffffff0000000000000000000000000000607087901b16816105d857fe5b046001600160e01b0316815250905092915050565b5160701c6dffffffffffffffffffffffffffff1690565b61060c610d14565b82516001600160e01b0316158061062b575081516001600160e01b0316155b156106455750604080516020810190915260008152610262565b825182516dffffffffffffffffffffffffffff607083811c8216938216929081901c82169190811690828502908285029083870290858702906001600160e01b03851611156106db576040805162461bcd60e51b815260206004820181905260248201527f4669786564506f696e743a204d554c55515f4f564552464c4f575f5550504552604482015290519081900360640190fd5b6000607060ff16846001600160e01b0316901c6001600160e01b0316826001600160e01b0316846001600160e01b0316607060ff16886001600160e01b0316901b6001600160e01b031601010190506000196001600160e01b031681111561078a576040805162461bcd60e51b815260206004820152601e60248201527f4669786564506f696e743a204d554c55515f4f564552464c4f575f53554d0000604482015290519081900360640190fd5b60408051602081019091526001600160e01b0390911681529b9a5050505050505050505050565b5160701c90565b6000806107e984600001516001600160e01b0316600085126107da57846107df565b846000035b600160701b610bd7565b90507f8000000000000000000000000000000000000000000000000000000000000000811061085f576040805162461bcd60e51b815260206004820152601960248201527f4669786564506f696e743a204d554c495f4f564552464c4f5700000000000000604482015290519081900360640190fd5b6000831261086d5780610872565b806000035b949350505050565b610882610d26565b60008215806108a857505082516001600160e01b0316828102908382816108a557fe5b04145b6108f9576040805162461bcd60e51b815260206004820152601860248201527f4669786564506f696e743a204d554c5f4f564552464c4f570000000000000000604482015290519081900360640190fd5b60408051602081019091529081529392505050565b610916610d26565b50604080516020810190915260709190911b6dffffffffffffffffffffffffffff1916815290565b610946610d14565b50604080516020810190915260709190911b7bffffffffffffffffffffffffffff000000000000000000000000000016815290565b610983610d14565b81516001600160e01b03166109df576040805162461bcd60e51b815260206004820152601d60248201527f4669786564506f696e743a204449565f42595f5a45524f5f4449565551000000604482015290519081900360640190fd5b815183516001600160e01b0390811691161415610a0e57506040805160208101909152600160701b8152610262565b825171ffffffffffffffffffffffffffffffffffff6001600160e01b0390911611610ade57815183516000916001600160e01b03169060701b6dffffffffffffffffffffffffffff191681610a5f57fe5b0490506001600160e01b03811115610abe576040805162461bcd60e51b815260206004820152601a60248201527f4669786564506f696e743a2044495655515f4f564552464c4f57000000000000604482015290519081900360640190fd5b6040518060200160405280826001600160e01b0316815250915050610262565b6000610b09600160701b85600001516001600160e01b031685600001516001600160e01b0316610bd7565b90506001600160e01b03811115610b67576040805162461bcd60e51b815260206004820152601a60248201527f4669786564506f696e743a2044495655515f4f564552464c4f57000000000000604482015290519081900360640190fd5b60408051602081019091526001600160e01b0390911681529392505050565b60006003821115610bc9575080600160028204015b81811015610bc357809150600281828581610bb257fe5b040181610bbb57fe5b049050610b9b565b50610229565b811561022957506001919050565b6000806000610be68686610c77565b9150915060008480610bf457fe5b868809905082811115610c08576001820391505b8083039250848210610c61576040805162461bcd60e51b815260206004820152601a60248201527f46756c6c4d6174683a2046554c4c4449565f4f564552464c4f57000000000000604482015290519081900360640190fd5b610c6c838387610ca4565b979650505050505050565b6000808060001984860990508385029250828103915082811015610c9c576001820391505b509250929050565b60008181038216808381610cb457fe5b049250808581610cc057fe5b049450808160000381610ccf57fe5b60028581038087028203028087028203028087028203028087028203028087028203028087028203029586029003909402930460010193909302939093010292915050565b60408051602081019091526000815290565b6040518060200160405280600081525090565b600060208284031215610d4a578081fd5b50919050565b80356dffffffffffffffffffffffffffff8116811461022957600080fd5b600060208284031215610d7f578081fd5b61025f8383610d39565b60008060408385031215610d9b578081fd5b610da58484610d39565b946020939093013593505050565b60008060408385031215610dc5578182fd5b610dcf8484610d39565b9150610dde8460208501610d39565b90509250929050565b60008060408385031215610d9b578182fd5b600060208284031215610e0a578081fd5b6040516020810181811067ffffffffffffffff82111715610e2757fe5b60405282356001600160e01b0381168114610e40578283fd5b81529392505050565b600060208284031215610e5a578081fd5b6040516020810181811067ffffffffffffffff82111715610e7757fe5b6040529135825250919050565b600060208284031215610e95578081fd5b61025f82610d50565b60008060408385031215610eb0578182fd5b610eb983610d50565b9150610dde60208401610d50565b600060208284031215610ed8578081fd5b813571ffffffffffffffffffffffffffffffffffff81168114610ef9578182fd5b9392505050565b90815260200190565b90516001600160e01b0316815260200190565b9051815260200190565b6dffffffffffffffffffffffffffff91909116815260200190565b71ffffffffffffffffffffffffffffffffffff9190911681526020019056fe4669786564506f696e743a204449565f42595f5a45524f5f5245434950524f43414c5f4f525f4f564552464c4f57a2646970667358221220299ebcef9719319b34f5a407be0de960251dd9301f01cb7e8b46290c783c912d64736f6c63430007060033",
          "opcodes": "PUSH1 0x80 PUSH1 0x40 MSTORE CALLVALUE DUP1 ISZERO PUSH2 0x10 JUMPI PUSH1 0x0 DUP1 REVERT JUMPDEST POP PUSH2 0xFC4 DUP1 PUSH2 0x20 PUSH1 0x0 CODECOPY PUSH1 0x0 RETURN INVALID PUSH1 0x80 PUSH1 0x40 MSTORE CALLVALUE DUP1 ISZERO PUSH2 0x10 JUMPI PUSH1 0x0 DUP1 REVERT JUMPDEST POP PUSH1 0x4 CALLDATASIZE LT PUSH2 0xD4 JUMPI PUSH1 0x0 CALLDATALOAD PUSH1 0xE0 SHR DUP1 PUSH4 0x89258451 GT PUSH2 0x81 JUMPI DUP1 PUSH4 0xCA2D0299 GT PUSH2 0x5B JUMPI DUP1 PUSH4 0xCA2D0299 EQ PUSH2 0x1CE JUMPI DUP1 PUSH4 0xCA74FCC0 EQ PUSH2 0x1E1 JUMPI DUP1 PUSH4 0xD993D379 EQ PUSH2 0x1F4 JUMPI PUSH2 0xD4 JUMP JUMPDEST DUP1 PUSH4 0x89258451 EQ PUSH2 0x17B JUMPI DUP1 PUSH4 0xAF35B769 EQ PUSH2 0x19B JUMPI DUP1 PUSH4 0xC814E314 EQ PUSH2 0x1BB JUMPI PUSH2 0xD4 JUMP JUMPDEST DUP1 PUSH4 0x4FD04A40 GT PUSH2 0xB2 JUMPI DUP1 PUSH4 0x4FD04A40 EQ PUSH2 0x128 JUMPI DUP1 PUSH4 0x5A606689 EQ PUSH2 0x148 JUMPI DUP1 PUSH4 0x5F9F4C3B EQ PUSH2 0x15B JUMPI PUSH2 0xD4 JUMP JUMPDEST DUP1 PUSH4 0x31F92B13 EQ PUSH2 0xD9 JUMPI DUP1 PUSH4 0x3F1626C8 EQ PUSH2 0x102 JUMPI DUP1 PUSH4 0x4DE4CF92 EQ PUSH2 0x115 JUMPI JUMPDEST PUSH1 0x0 DUP1 REVERT JUMPDEST PUSH2 0xEC PUSH2 0xE7 CALLDATASIZE PUSH1 0x4 PUSH2 0xD6E JUMP JUMPDEST PUSH2 0x207 JUMP JUMPDEST PUSH1 0x40 MLOAD PUSH2 0xF9 SWAP2 SWAP1 PUSH2 0xF09 JUMP JUMPDEST PUSH1 0x40 MLOAD DUP1 SWAP2 SUB SWAP1 RETURN JUMPDEST PUSH2 0xEC PUSH2 0x110 CALLDATASIZE PUSH1 0x4 PUSH2 0xD6E JUMP JUMPDEST PUSH2 0x22E JUMP JUMPDEST PUSH2 0xEC PUSH2 0x123 CALLDATASIZE PUSH1 0x4 PUSH2 0xE9E JUMP JUMPDEST PUSH2 0x24D JUMP JUMPDEST PUSH2 0x13B PUSH2 0x136 CALLDATASIZE PUSH1 0x4 PUSH2 0xD6E JUMP JUMPDEST PUSH2 0x268 JUMP JUMPDEST PUSH1 0x40 MLOAD PUSH2 0xF9 SWAP2 SWAP1 PUSH2 0xF26 JUMP JUMPDEST PUSH2 0xEC PUSH2 0x156 CALLDATASIZE PUSH1 0x4 PUSH2 0xDB3 JUMP JUMPDEST PUSH2 0x281 JUMP JUMPDEST PUSH2 0x16E PUSH2 0x169 CALLDATASIZE PUSH1 0x4 PUSH2 0xD6E JUMP JUMPDEST PUSH2 0x2AF JUMP JUMPDEST PUSH1 0x40 MLOAD PUSH2 0xF9 SWAP2 SWAP1 PUSH2 0xF41 JUMP JUMPDEST PUSH2 0x18E PUSH2 0x189 CALLDATASIZE PUSH1 0x4 PUSH2 0xD89 JUMP JUMPDEST PUSH2 0x2C8 JUMP JUMPDEST PUSH1 0x40 MLOAD PUSH2 0xF9 SWAP2 SWAP1 PUSH2 0xF00 JUMP JUMPDEST PUSH2 0x1AE PUSH2 0x1A9 CALLDATASIZE PUSH1 0x4 PUSH2 0xDE7 JUMP JUMPDEST PUSH2 0x2E2 JUMP JUMPDEST PUSH1 0x40 MLOAD PUSH2 0xF9 SWAP2 SWAP1 PUSH2 0xF1C JUMP JUMPDEST PUSH2 0x1AE PUSH2 0x1C9 CALLDATASIZE PUSH1 0x4 PUSH2 0xEC7 JUMP JUMPDEST PUSH2 0x302 JUMP JUMPDEST PUSH2 0xEC PUSH2 0x1DC CALLDATASIZE PUSH1 0x4 PUSH2 0xE84 JUMP JUMPDEST PUSH2 0x313 JUMP JUMPDEST PUSH2 0xEC PUSH2 0x1EF CALLDATASIZE PUSH1 0x4 PUSH2 0xDB3 JUMP JUMPDEST PUSH2 0x324 JUMP JUMPDEST PUSH2 0x18E PUSH2 0x202 CALLDATASIZE PUSH1 0x4 PUSH2 0xDB3 JUMP JUMPDEST PUSH2 0x352 JUMP JUMPDEST PUSH2 0x20F PUSH2 0xD14 JUMP JUMPDEST PUSH2 0x226 PUSH2 0x221 CALLDATASIZE DUP5 SWAP1 SUB DUP5 ADD DUP5 PUSH2 0xDF9 JUMP JUMPDEST PUSH2 0x384 JUMP JUMPDEST SWAP1 POP JUMPDEST SWAP2 SWAP1 POP JUMP JUMPDEST PUSH2 0x236 PUSH2 0xD14 JUMP JUMPDEST PUSH2 0x226 PUSH2 0x248 CALLDATASIZE DUP5 SWAP1 SUB DUP5 ADD DUP5 PUSH2 0xDF9 JUMP JUMPDEST PUSH2 0x42A JUMP JUMPDEST PUSH2 0x255 PUSH2 0xD14 JUMP JUMPDEST PUSH2 0x25F DUP4 DUP4 PUSH2 0x524 JUMP JUMPDEST SWAP1 POP JUMPDEST SWAP3 SWAP2 POP POP JUMP JUMPDEST PUSH1 0x0 PUSH2 0x226 PUSH2 0x27C CALLDATASIZE DUP5 SWAP1 SUB DUP5 ADD DUP5 PUSH2 0xDF9 JUMP JUMPDEST PUSH2 0x5ED JUMP JUMPDEST PUSH2 0x289 PUSH2 0xD14 JUMP JUMPDEST PUSH2 0x25F PUSH2 0x29B CALLDATASIZE DUP6 SWAP1 SUB DUP6 ADD DUP6 PUSH2 0xDF9 JUMP JUMPDEST PUSH2 0x2AA CALLDATASIZE DUP6 SWAP1 SUB DUP6 ADD DUP6 PUSH2 0xDF9 JUMP JUMPDEST PUSH2 0x604 JUMP JUMPDEST PUSH1 0x0 PUSH2 0x226 PUSH2 0x2C3 CALLDATASIZE DUP5 SWAP1 SUB DUP5 ADD DUP5 PUSH2 0xE49 JUMP JUMPDEST PUSH2 0x7B1 JUMP JUMPDEST PUSH1 0x0 PUSH2 0x25F PUSH2 0x2DC CALLDATASIZE DUP6 SWAP1 SUB DUP6 ADD DUP6 PUSH2 0xDF9 JUMP JUMPDEST DUP4 PUSH2 0x7B8 JUMP JUMPDEST PUSH2 0x2EA PUSH2 0xD26 JUMP JUMPDEST PUSH2 0x25F PUSH2 0x2FC CALLDATASIZE DUP6 SWAP1 SUB DUP6 ADD DUP6 PUSH2 0xDF9 JUMP JUMPDEST DUP4 PUSH2 0x87A JUMP JUMPDEST PUSH2 0x30A PUSH2 0xD26 JUMP JUMPDEST PUSH2 0x226 DUP3 PUSH2 0x90E JUMP JUMPDEST PUSH2 0x31B PUSH2 0xD14 JUMP JUMPDEST PUSH2 0x226 DUP3 PUSH2 0x93E JUMP JUMPDEST PUSH2 0x32C PUSH2 0xD14 JUMP JUMPDEST PUSH2 0x25F PUSH2 0x33E CALLDATASIZE DUP6 SWAP1 SUB DUP6 ADD DUP6 PUSH2 0xDF9 JUMP JUMPDEST PUSH2 0x34D CALLDATASIZE DUP6 SWAP1 SUB DUP6 ADD DUP6 PUSH2 0xDF9 JUMP JUMPDEST PUSH2 0x97B JUMP JUMPDEST PUSH1 0x0 DUP1 GAS SWAP1 POP PUSH2 0x379 PUSH2 0x36A CALLDATASIZE DUP7 SWAP1 SUB DUP7 ADD DUP7 PUSH2 0xDF9 JUMP JUMPDEST PUSH2 0x34D CALLDATASIZE DUP7 SWAP1 SUB DUP7 ADD DUP7 PUSH2 0xDF9 JUMP JUMPDEST POP GAS SWAP1 SUB SWAP4 SWAP3 POP POP POP JUMP JUMPDEST PUSH2 0x38C PUSH2 0xD14 JUMP JUMPDEST PUSH1 0x1 DUP3 PUSH1 0x0 ADD MLOAD PUSH1 0x1 PUSH1 0x1 PUSH1 0xE0 SHL SUB AND GT PUSH2 0x3D8 JUMPI PUSH1 0x40 MLOAD PUSH3 0x461BCD PUSH1 0xE5 SHL DUP2 MSTORE PUSH1 0x4 ADD DUP1 DUP1 PUSH1 0x20 ADD DUP3 DUP2 SUB DUP3 MSTORE PUSH1 0x2E DUP2 MSTORE PUSH1 0x20 ADD DUP1 PUSH2 0xF61 PUSH1 0x2E SWAP2 CODECOPY PUSH1 0x40 ADD SWAP2 POP POP PUSH1 0x40 MLOAD DUP1 SWAP2 SUB SWAP1 REVERT JUMPDEST PUSH1 0x40 MLOAD DUP1 PUSH1 0x20 ADD PUSH1 0x40 MSTORE DUP1 DUP4 PUSH1 0x0 ADD MLOAD PUSH1 0x1 PUSH1 0x1 PUSH1 0xE0 SHL SUB AND PUSH29 0x100000000000000000000000000000000000000000000000000000000 DUP2 PUSH2 0x416 JUMPI INVALID JUMPDEST DIV PUSH1 0x1 PUSH1 0x1 PUSH1 0xE0 SHL SUB AND DUP2 MSTORE POP SWAP1 POP SWAP2 SWAP1 POP JUMP JUMPDEST PUSH2 0x432 PUSH2 0xD14 JUMP JUMPDEST DUP2 MLOAD PUSH18 0xFFFFFFFFFFFFFFFFFFFFFFFFFFFFFFFFFFFF PUSH1 0x1 PUSH1 0x1 PUSH1 0xE0 SHL SUB SWAP1 SWAP2 AND GT PUSH2 0x48E JUMPI PUSH1 0x40 MLOAD DUP1 PUSH1 0x20 ADD PUSH1 0x40 MSTORE DUP1 PUSH2 0x47C PUSH1 0x70 DUP6 PUSH1 0x0 ADD MLOAD PUSH1 0x1 PUSH1 0x1 PUSH1 0xE0 SHL SUB AND SWAP1 SHL PUSH2 0xB86 JUMP JUMPDEST PUSH1 0x1 PUSH1 0x1 PUSH1 0xE0 SHL SUB AND SWAP1 MSTORE SWAP1 POP PUSH2 0x229 JUMP JUMPDEST PUSH1 0x20 JUMPDEST PUSH1 0x70 DUP2 PUSH1 0xFF AND LT ISZERO PUSH2 0x4D5 JUMPI DUP3 MLOAD PUSH1 0x1 PUSH2 0xFFFF PUSH1 0x1 NOT PUSH1 0xFF DUP6 AND PUSH2 0x100 SUB ADD AND SHL PUSH1 0x1 PUSH1 0x1 PUSH1 0xE0 SHL SUB SWAP1 SWAP2 AND LT ISZERO PUSH2 0x4CB JUMPI PUSH1 0x2 ADD PUSH2 0x4D0 JUMP JUMPDEST PUSH2 0x4D5 JUMP JUMPDEST PUSH2 0x491 JUMP JUMPDEST PUSH1 0x40 MLOAD DUP1 PUSH1 0x20 ADD PUSH1 0x40 MSTORE DUP1 PUSH1 0x2 DUP4 PUSH1 0x70 SUB PUSH1 0xFF AND DUP2 PUSH2 0x4F0 JUMPI INVALID JUMPDEST DIV PUSH1 0xFF AND PUSH2 0x510 DUP5 PUSH1 0xFF AND DUP8 PUSH1 0x0 ADD MLOAD PUSH1 0x1 PUSH1 0x1 PUSH1 0xE0 SHL SUB AND SWAP1 SHL PUSH2 0xB86 JUMP JUMPDEST SWAP1 SHL PUSH1 0x1 PUSH1 0x1 PUSH1 0xE0 SHL SUB AND SWAP1 MSTORE SWAP4 SWAP3 POP POP POP JUMP JUMPDEST PUSH2 0x52C PUSH2 0xD14 JUMP JUMPDEST PUSH1 0x0 DUP3 PUSH14 0xFFFFFFFFFFFFFFFFFFFFFFFFFFFF AND GT PUSH2 0x591 JUMPI PUSH1 0x40 DUP1 MLOAD PUSH3 0x461BCD PUSH1 0xE5 SHL DUP2 MSTORE PUSH1 0x20 PUSH1 0x4 DUP3 ADD DUP2 SWAP1 MSTORE PUSH1 0x24 DUP3 ADD MSTORE PUSH32 0x4669786564506F696E743A204449565F42595F5A45524F5F4652414354494F4E PUSH1 0x44 DUP3 ADD MSTORE SWAP1 MLOAD SWAP1 DUP2 SWAP1 SUB PUSH1 0x64 ADD SWAP1 REVERT JUMPDEST PUSH1 0x40 DUP1 MLOAD PUSH1 0x20 DUP2 ADD SWAP1 SWAP2 MSTORE DUP1 PUSH14 0xFFFFFFFFFFFFFFFFFFFFFFFFFFFF DUP5 AND PUSH28 0xFFFFFFFFFFFFFFFFFFFFFFFFFFFF0000000000000000000000000000 PUSH1 0x70 DUP8 SWAP1 SHL AND DUP2 PUSH2 0x5D8 JUMPI INVALID JUMPDEST DIV PUSH1 0x1 PUSH1 0x1 PUSH1 0xE0 SHL SUB AND DUP2 MSTORE POP SWAP1 POP SWAP3 SWAP2 POP POP JUMP JUMPDEST MLOAD PUSH1 0x70 SHR PUSH14 0xFFFFFFFFFFFFFFFFFFFFFFFFFFFF AND SWAP1 JUMP JUMPDEST PUSH2 0x60C PUSH2 0xD14 JUMP JUMPDEST DUP3 MLOAD PUSH1 0x1 PUSH1 0x1 PUSH1 0xE0 SHL SUB AND ISZERO DUP1 PUSH2 0x62B JUMPI POP DUP2 MLOAD PUSH1 0x1 PUSH1 0x1 PUSH1 0xE0 SHL SUB AND ISZERO JUMPDEST ISZERO PUSH2 0x645 JUMPI POP PUSH1 0x40 DUP1 MLOAD PUSH1 0x20 DUP2 ADD SWAP1 SWAP2 MSTORE PUSH1 0x0 DUP2 MSTORE PUSH2 0x262 JUMP JUMPDEST DUP3 MLOAD DUP3 MLOAD PUSH14 0xFFFFFFFFFFFFFFFFFFFFFFFFFFFF PUSH1 0x70 DUP4 DUP2 SHR DUP3 AND SWAP4 DUP3 AND SWAP3 SWAP1 DUP2 SWAP1 SHR DUP3 AND SWAP2 SWAP1 DUP2 AND SWAP1 DUP3 DUP6 MUL SWAP1 DUP3 DUP6 MUL SWAP1 DUP4 DUP8 MUL SWAP1 DUP6 DUP8 MUL SWAP1 PUSH1 0x1 PUSH1 0x1 PUSH1 0xE0 SHL SUB DUP6 AND GT ISZERO PUSH2 0x6DB JUMPI PUSH1 0x40 DUP1 MLOAD PUSH3 0x461BCD PUSH1 0xE5 SHL DUP2 MSTORE PUSH1 0x20 PUSH1 0x4 DUP3 ADD DUP2 SWAP1 MSTORE PUSH1 0x24 DUP3 ADD MSTORE PUSH32 0x4669786564506F696E743A204D554C55515F4F564552464C4F575F5550504552 PUSH1 0x44 DUP3 ADD MSTORE SWAP1 MLOAD SWAP1 DUP2 SWAP1 SUB PUSH1 0x64 ADD SWAP1 REVERT JUMPDEST PUSH1 0x0 PUSH1 0x70 PUSH1 0xFF AND DUP5 PUSH1 0x1 PUSH1 0x1 PUSH1 0xE0 SHL SUB AND SWAP1 SHR PUSH1 0x1 PUSH1 0x1 PUSH1 0xE0 SHL SUB AND DUP3 PUSH1 0x1 PUSH1 0x1 PUSH1 0xE0 SHL SUB AND DUP5 PUSH1 0x1 PUSH1 0x1 PUSH1 0xE0 SHL SUB AND PUSH1 0x70 PUSH1 0xFF AND DUP9 PUSH1 0x1 PUSH1 0x1 PUSH1 0xE0 SHL SUB AND SWAP1 SHL PUSH1 0x1 PUSH1 0x1 PUSH1 0xE0 SHL SUB AND ADD ADD ADD SWAP1 POP PUSH1 0x0 NOT PUSH1 0x1 PUSH1 0x1 PUSH1 0xE0 SHL SUB AND DUP2 GT ISZERO PUSH2 0x78A JUMPI PUSH1 0x40 DUP1 MLOAD PUSH3 0x461BCD PUSH1 0xE5 SHL DUP2 MSTORE PUSH1 0x20 PUSH1 0x4 DUP3 ADD MSTORE PUSH1 0x1E PUSH1 0x24 DUP3 ADD MSTORE PUSH32 0x4669786564506F696E743A204D554C55515F4F564552464C4F575F53554D0000 PUSH1 0x44 DUP3 ADD MSTORE SWAP1 MLOAD SWAP1 DUP2 SWAP1 SUB PUSH1 0x64 ADD SWAP1 REVERT JUMPDEST PUSH1 0x40 DUP1 MLOAD PUSH1 0x20 DUP2 ADD SWAP1 SWAP2 MSTORE PUSH1 0x1 PUSH1 0x1 PUSH1 0xE0 SHL SUB SWAP1 SWAP2 AND DUP2 MSTORE SWAP12 SWAP11 POP POP POP POP POP POP POP POP POP POP POP JUMP JUMPDEST MLOAD PUSH1 0x70 SHR SWAP1 JUMP JUMPDEST PUSH1 0x0 DUP1 PUSH2 0x7E9 DUP5 PUSH1 0x0 ADD MLOAD PUSH1 0x1 PUSH1 0x1 PUSH1 0xE0 SHL SUB AND PUSH1 0x0 DUP6 SLT PUSH2 0x7DA JUMPI DUP5 PUSH2 0x7DF JUMP JUMPDEST DUP5 PUSH1 0x0 SUB JUMPDEST PUSH1 0x1 PUSH1 0x70 SHL PUSH2 0xBD7 JUMP JUMPDEST SWAP1 POP PUSH32 0x8000000000000000000000000000000000000000000000000000000000000000 DUP2 LT PUSH2 0x85F JUMPI PUSH1 0x40 DUP1 MLOAD PUSH3 0x461BCD PUSH1 0xE5 SHL DUP2 MSTORE PUSH1 0x20 PUSH1 0x4 DUP3 ADD MSTORE PUSH1 0x19 PUSH1 0x24 DUP3 ADD MSTORE PUSH32 0x4669786564506F696E743A204D554C495F4F564552464C4F5700000000000000 PUSH1 0x44 DUP3 ADD MSTORE SWAP1 MLOAD SWAP1 DUP2 SWAP1 SUB PUSH1 0x64 ADD SWAP1 REVERT JUMPDEST PUSH1 0x0 DUP4 SLT PUSH2 0x86D JUMPI DUP1 PUSH2 0x872 JUMP JUMPDEST DUP1 PUSH1 0x0 SUB JUMPDEST SWAP5 SWAP4 POP POP POP POP JUMP JUMPDEST PUSH2 0x882 PUSH2 0xD26 JUMP JUMPDEST PUSH1 0x0 DUP3 ISZERO DUP1 PUSH2 0x8A8 JUMPI POP POP DUP3 MLOAD PUSH1 0x1 PUSH1 0x1 PUSH1 0xE0 SHL SUB AND DUP3 DUP2 MUL SWAP1 DUP4 DUP3 DUP2 PUSH2 0x8A5 JUMPI INVALID JUMPDEST DIV EQ JUMPDEST PUSH2 0x8F9 JUMPI PUSH1 0x40 DUP1 MLOAD PUSH3 0x461BCD PUSH1 0xE5 SHL DUP2 MSTORE PUSH1 0x20 PUSH1 0x4 DUP3 ADD MSTORE PUSH1 0x18 PUSH1 0x24 DUP3 ADD MSTORE PUSH32 0x4669786564506F696E743A204D554C5F4F564552464C4F570000000000000000 PUSH1 0x44 DUP3 ADD MSTORE SWAP1 MLOAD SWAP1 DUP2 SWAP1 SUB PUSH1 0x64 ADD SWAP1 REVERT JUMPDEST PUSH1 0x40 DUP1 MLOAD PUSH1 0x20 DUP2 ADD SWAP1 SWAP2 MSTORE SWAP1 DUP2 MSTORE SWAP4 SWAP3 POP POP POP JUMP JUMPDEST PUSH2 0x916 PUSH2 0xD26 JUMP JUMPDEST POP PUSH1 0x40 DUP1 MLOAD PUSH1 0x20 DUP2 ADD SWAP1 SWAP2 MSTORE PUSH1 0x70 SWAP2 SWAP1 SWAP2 SHL PUSH14 0xFFFFFFFFFFFFFFFFFFFFFFFFFFFF NOT AND DUP2 MSTORE SWAP1 JUMP JUMPDEST PUSH2 0x946 PUSH2 0xD14 JUMP JUMPDEST POP PUSH1 0x40 DUP1 MLOAD PUSH1 0x20 DUP2 ADD SWAP1 SWAP2 MSTORE PUSH1 0x70 SWAP2 SWAP1 SWAP2 SHL PUSH28 0xFFFFFFFFFFFFFFFFFFFFFFFFFFFF0000000000000000000000000000 AND DUP2 MSTORE SWAP1 JUMP JUMPDEST PUSH2 0x983 PUSH2 0xD14 JUMP JUMPDEST DUP2 MLOAD PUSH1 0x1 PUSH1 0x1 PUSH1 0xE0 SHL SUB AND PUSH2 0x9DF JUMPI PUSH1 0x40 DUP1 MLOAD PUSH3 0x461BCD PUSH1 0xE5 SHL DUP2 MSTORE PUSH1 0x20 PUSH1 0x4 DUP3 ADD MSTORE PUSH1 0x1D PUSH1 0x24 DUP3 ADD MSTORE PUSH32 0x4669786564506F696E743A204449565F42595F5A45524F5F4449565551000000 PUSH1 0x44 DUP3 ADD MSTORE SWAP1 MLOAD SWAP1 DUP2 SWAP1 SUB PUSH1 0x64 ADD SWAP1 REVERT JUMPDEST DUP2 MLOAD DUP4 MLOAD PUSH1 0x1 PUSH1 0x1 PUSH1 0xE0 SHL SUB SWAP1 DUP2 AND SWAP2 AND EQ ISZERO PUSH2 0xA0E JUMPI POP PUSH1 0x40 DUP1 MLOAD PUSH1 0x20 DUP2 ADD SWAP1 SWAP2 MSTORE PUSH1 0x1 PUSH1 0x70 SHL DUP2 MSTORE PUSH2 0x262 JUMP JUMPDEST DUP3 MLOAD PUSH18 0xFFFFFFFFFFFFFFFFFFFFFFFFFFFFFFFFFFFF PUSH1 0x1 PUSH1 0x1 PUSH1 0xE0 SHL SUB SWAP1 SWAP2 AND GT PUSH2 0xADE JUMPI DUP2 MLOAD DUP4 MLOAD PUSH1 0x0 SWAP2 PUSH1 0x1 PUSH1 0x1 PUSH1 0xE0 SHL SUB AND SWAP1 PUSH1 0x70 SHL PUSH14 0xFFFFFFFFFFFFFFFFFFFFFFFFFFFF NOT AND DUP2 PUSH2 0xA5F JUMPI INVALID JUMPDEST DIV SWAP1 POP PUSH1 0x1 PUSH1 0x1 PUSH1 0xE0 SHL SUB DUP2 GT ISZERO PUSH2 0xABE JUMPI PUSH1 0x40 DUP1 MLOAD PUSH3 0x461BCD PUSH1 0xE5 SHL DUP2 MSTORE PUSH1 0x20 PUSH1 0x4 DUP3 ADD MSTORE PUSH1 0x1A PUSH1 0x24 DUP3 ADD MSTORE PUSH32 0x4669786564506F696E743A2044495655515F4F564552464C4F57000000000000 PUSH1 0x44 DUP3 ADD MSTORE SWAP1 MLOAD SWAP1 DUP2 SWAP1 SUB PUSH1 0x64 ADD SWAP1 REVERT JUMPDEST PUSH1 0x40 MLOAD DUP1 PUSH1 0x20 ADD PUSH1 0x40 MSTORE DUP1 DUP3 PUSH1 0x1 PUSH1 0x1 PUSH1 0xE0 SHL SUB AND DUP2 MSTORE POP SWAP2 POP POP PUSH2 0x262 JUMP JUMPDEST PUSH1 0x0 PUSH2 0xB09 PUSH1 0x1 PUSH1 0x70 SHL DUP6 PUSH1 0x0 ADD MLOAD PUSH1 0x1 PUSH1 0x1 PUSH1 0xE0 SHL SUB AND DUP6 PUSH1 0x0 ADD MLOAD PUSH1 0x1 PUSH1 0x1 PUSH1 0xE0 SHL SUB AND PUSH2 0xBD7 JUMP JUMPDEST SWAP1 POP PUSH1 0x1 PUSH1 0x1 PUSH1 0xE0 SHL SUB DUP2 GT ISZERO PUSH2 0xB67 JUMPI PUSH1 0x40 DUP1 MLOAD PUSH3 0x461BCD PUSH1 0xE5 SHL DUP2 MSTORE PUSH1 0x20 PUSH1 0x4 DUP3 ADD MSTORE PUSH1 0x1A PUSH1 0x24 DUP3 ADD MSTORE PUSH32 0x4669786564506F696E743A2044495655515F4F564552464C4F57000000000000 PUSH1 0x44 DUP3 ADD MSTORE SWAP1 MLOAD SWAP1 DUP2 SWAP1 SUB PUSH1 0x64 ADD SWAP1 REVERT JUMPDEST PUSH1 0x40 DUP1 MLOAD PUSH1 0x20 DUP2 ADD SWAP1 SWAP2 MSTORE PUSH1 0x1 PUSH1 0x1 PUSH1 0xE0 SHL SUB SWAP1 SWAP2 AND DUP2 MSTORE SWAP4 SWAP3 POP POP POP JUMP JUMPDEST PUSH1 0x0 PUSH1 0x3 DUP3 GT ISZERO PUSH2 0xBC9 JUMPI POP DUP1 PUSH1 0x1 PUSH1 0x2 DUP3 DIV ADD JUMPDEST DUP2 DUP2 LT ISZERO PUSH2 0xBC3 JUMPI DUP1 SWAP2 POP PUSH1 0x2 DUP2 DUP3 DUP6 DUP2 PUSH2 0xBB2 JUMPI INVALID JUMPDEST DIV ADD DUP2 PUSH2 0xBBB JUMPI INVALID JUMPDEST DIV SWAP1 POP PUSH2 0xB9B JUMP JUMPDEST POP PUSH2 0x229 JUMP JUMPDEST DUP2 ISZERO PUSH2 0x229 JUMPI POP PUSH1 0x1 SWAP2 SWAP1 POP JUMP JUMPDEST PUSH1 0x0 DUP1 PUSH1 0x0 PUSH2 0xBE6 DUP7 DUP7 PUSH2 0xC77 JUMP JUMPDEST SWAP2 POP SWAP2 POP PUSH1 0x0 DUP5 DUP1 PUSH2 0xBF4 JUMPI INVALID JUMPDEST DUP7 DUP9 MULMOD SWAP1 POP DUP3 DUP2 GT ISZERO PUSH2 0xC08 JUMPI PUSH1 0x1 DUP3 SUB SWAP2 POP JUMPDEST DUP1 DUP4 SUB SWAP3 POP DUP5 DUP3 LT PUSH2 0xC61 JUMPI PUSH1 0x40 DUP1 MLOAD PUSH3 0x461BCD PUSH1 0xE5 SHL DUP2 MSTORE PUSH1 0x20 PUSH1 0x4 DUP3 ADD MSTORE PUSH1 0x1A PUSH1 0x24 DUP3 ADD MSTORE PUSH32 0x46756C6C4D6174683A2046554C4C4449565F4F564552464C4F57000000000000 PUSH1 0x44 DUP3 ADD MSTORE SWAP1 MLOAD SWAP1 DUP2 SWAP1 SUB PUSH1 0x64 ADD SWAP1 REVERT JUMPDEST PUSH2 0xC6C DUP4 DUP4 DUP8 PUSH2 0xCA4 JUMP JUMPDEST SWAP8 SWAP7 POP POP POP POP POP POP POP JUMP JUMPDEST PUSH1 0x0 DUP1 DUP1 PUSH1 0x0 NOT DUP5 DUP7 MULMOD SWAP1 POP DUP4 DUP6 MUL SWAP3 POP DUP3 DUP2 SUB SWAP2 POP DUP3 DUP2 LT ISZERO PUSH2 0xC9C JUMPI PUSH1 0x1 DUP3 SUB SWAP2 POP JUMPDEST POP SWAP3 POP SWAP3 SWAP1 POP JUMP JUMPDEST PUSH1 0x0 DUP2 DUP2 SUB DUP3 AND DUP1 DUP4 DUP2 PUSH2 0xCB4 JUMPI INVALID JUMPDEST DIV SWAP3 POP DUP1 DUP6 DUP2 PUSH2 0xCC0 JUMPI INVALID JUMPDEST DIV SWAP5 POP DUP1 DUP2 PUSH1 0x0 SUB DUP2 PUSH2 0xCCF JUMPI INVALID JUMPDEST PUSH1 0x2 DUP6 DUP2 SUB DUP1 DUP8 MUL DUP3 SUB MUL DUP1 DUP8 MUL DUP3 SUB MUL DUP1 DUP8 MUL DUP3 SUB MUL DUP1 DUP8 MUL DUP3 SUB MUL DUP1 DUP8 MUL DUP3 SUB MUL DUP1 DUP8 MUL DUP3 SUB MUL SWAP6 DUP7 MUL SWAP1 SUB SWAP1 SWAP5 MUL SWAP4 DIV PUSH1 0x1 ADD SWAP4 SWAP1 SWAP4 MUL SWAP4 SWAP1 SWAP4 ADD MUL SWAP3 SWAP2 POP POP JUMP JUMPDEST PUSH1 0x40 DUP1 MLOAD PUSH1 0x20 DUP2 ADD SWAP1 SWAP2 MSTORE PUSH1 0x0 DUP2 MSTORE SWAP1 JUMP JUMPDEST PUSH1 0x40 MLOAD DUP1 PUSH1 0x20 ADD PUSH1 0x40 MSTORE DUP1 PUSH1 0x0 DUP2 MSTORE POP SWAP1 JUMP JUMPDEST PUSH1 0x0 PUSH1 0x20 DUP3 DUP5 SUB SLT ISZERO PUSH2 0xD4A JUMPI DUP1 DUP2 REVERT JUMPDEST POP SWAP2 SWAP1 POP JUMP JUMPDEST DUP1 CALLDATALOAD PUSH14 0xFFFFFFFFFFFFFFFFFFFFFFFFFFFF DUP2 AND DUP2 EQ PUSH2 0x229 JUMPI PUSH1 0x0 DUP1 REVERT JUMPDEST PUSH1 0x0 PUSH1 0x20 DUP3 DUP5 SUB SLT ISZERO PUSH2 0xD7F JUMPI DUP1 DUP2 REVERT JUMPDEST PUSH2 0x25F DUP4 DUP4 PUSH2 0xD39 JUMP JUMPDEST PUSH1 0x0 DUP1 PUSH1 0x40 DUP4 DUP6 SUB SLT ISZERO PUSH2 0xD9B JUMPI DUP1 DUP2 REVERT JUMPDEST PUSH2 0xDA5 DUP5 DUP5 PUSH2 0xD39 JUMP JUMPDEST SWAP5 PUSH1 0x20 SWAP4 SWAP1 SWAP4 ADD CALLDATALOAD SWAP4 POP POP POP JUMP JUMPDEST PUSH1 0x0 DUP1 PUSH1 0x40 DUP4 DUP6 SUB SLT ISZERO PUSH2 0xDC5 JUMPI DUP2 DUP3 REVERT JUMPDEST PUSH2 0xDCF DUP5 DUP5 PUSH2 0xD39 JUMP JUMPDEST SWAP2 POP PUSH2 0xDDE DUP5 PUSH1 0x20 DUP6 ADD PUSH2 0xD39 JUMP JUMPDEST SWAP1 POP SWAP3 POP SWAP3 SWAP1 POP JUMP JUMPDEST PUSH1 0x0 DUP1 PUSH1 0x40 DUP4 DUP6 SUB SLT ISZERO PUSH2 0xD9B JUMPI DUP2 DUP3 REVERT JUMPDEST PUSH1 0x0 PUSH1 0x20 DUP3 DUP5 SUB SLT ISZERO PUSH2 0xE0A JUMPI DUP1 DUP2 REVERT JUMPDEST PUSH1 0x40 MLOAD PUSH1 0x20 DUP2 ADD DUP2 DUP2 LT PUSH8 0xFFFFFFFFFFFFFFFF DUP3 GT OR ISZERO PUSH2 0xE27 JUMPI INVALID JUMPDEST PUSH1 0x40 MSTORE DUP3 CALLDATALOAD PUSH1 0x1 PUSH1 0x1 PUSH1 0xE0 SHL SUB DUP2 AND DUP2 EQ PUSH2 0xE40 JUMPI DUP3 DUP4 REVERT JUMPDEST DUP2 MSTORE SWAP4 SWAP3 POP POP POP JUMP JUMPDEST PUSH1 0x0 PUSH1 0x20 DUP3 DUP5 SUB SLT ISZERO PUSH2 0xE5A JUMPI DUP1 DUP2 REVERT JUMPDEST PUSH1 0x40 MLOAD PUSH1 0x20 DUP2 ADD DUP2 DUP2 LT PUSH8 0xFFFFFFFFFFFFFFFF DUP3 GT OR ISZERO PUSH2 0xE77 JUMPI INVALID JUMPDEST PUSH1 0x40 MSTORE SWAP2 CALLDATALOAD DUP3 MSTORE POP SWAP2 SWAP1 POP JUMP JUMPDEST PUSH1 0x0 PUSH1 0x20 DUP3 DUP5 SUB SLT ISZERO PUSH2 0xE95 JUMPI DUP1 DUP2 REVERT JUMPDEST PUSH2 0x25F DUP3 PUSH2 0xD50 JUMP JUMPDEST PUSH1 0x0 DUP1 PUSH1 0x40 DUP4 DUP6 SUB SLT ISZERO PUSH2 0xEB0 JUMPI DUP2 DUP3 REVERT JUMPDEST PUSH2 0xEB9 DUP4 PUSH2 0xD50 JUMP JUMPDEST SWAP2 POP PUSH2 0xDDE PUSH1 0x20 DUP5 ADD PUSH2 0xD50 JUMP JUMPDEST PUSH1 0x0 PUSH1 0x20 DUP3 DUP5 SUB SLT ISZERO PUSH2 0xED8 JUMPI DUP1 DUP2 REVERT JUMPDEST DUP2 CALLDATALOAD PUSH18 0xFFFFFFFFFFFFFFFFFFFFFFFFFFFFFFFFFFFF DUP2 AND DUP2 EQ PUSH2 0xEF9 JUMPI DUP2 DUP3 REVERT JUMPDEST SWAP4 SWAP3 POP POP POP JUMP JUMPDEST SWAP1 DUP2 MSTORE PUSH1 0x20 ADD SWAP1 JUMP JUMPDEST SWAP1 MLOAD PUSH1 0x1 PUSH1 0x1 PUSH1 0xE0 SHL SUB AND DUP2 MSTORE PUSH1 0x20 ADD SWAP1 JUMP JUMPDEST SWAP1 MLOAD DUP2 MSTORE PUSH1 0x20 ADD SWAP1 JUMP JUMPDEST PUSH14 0xFFFFFFFFFFFFFFFFFFFFFFFFFFFF SWAP2 SWAP1 SWAP2 AND DUP2 MSTORE PUSH1 0x20 ADD SWAP1 JUMP JUMPDEST PUSH18 0xFFFFFFFFFFFFFFFFFFFFFFFFFFFFFFFFFFFF SWAP2 SWAP1 SWAP2 AND DUP2 MSTORE PUSH1 0x20 ADD SWAP1 JUMP INVALID CHAINID PUSH10 0x786564506F696E743A20 DIFFICULTY 0x49 JUMP 0x5F TIMESTAMP MSIZE 0x5F GAS GASLIMIT MSTORE 0x4F 0x5F MSTORE GASLIMIT NUMBER 0x49 POP MSTORE 0x4F NUMBER COINBASE 0x4C 0x5F 0x4F MSTORE 0x5F 0x4F JUMP GASLIMIT MSTORE CHAINID 0x4C 0x4F JUMPI LOG2 PUSH5 0x6970667358 0x22 SLT KECCAK256 0x29 SWAP15 0xBC 0xEF SWAP8 NOT BALANCE SWAP12 CALLVALUE CREATE2 LOG4 SMOD 0xBE 0xD 0xE9 PUSH1 0x25 SAR 0xD9 ADDRESS 0x1F ADD 0xCB PUSH31 0x8B46290C783C912D64736F6C63430007060033000000000000000000000000 "
        },
        "methodIdentifiers": {
          "decode((uint224))": "4fd04a40",
          "decode144((uint256))": "5f9f4c3b",
          "divuq((uint224),(uint224))": "ca74fcc0",
          "encode(uint112)": "ca2d0299",
          "encode144(uint144)": "c814e314",
          "fraction(uint112,uint112)": "4de4cf92",
          "getGasCostOfDivuq((uint224),(uint224))": "d993d379",
          "mul((uint224),uint256)": "af35b769",
          "muli((uint224),int256)": "89258451",
          "muluq((uint224),(uint224))": "5a606689",
          "reciprocal((uint224))": "31f92b13",
          "sqrt((uint224))": "3f1626c8"
        }
      },
      "storageLayout": {
        "storage": [],
        "types": null
      }
    }
  }
}