{
  "_format": "hh-sol-artifact-1",
  "contractName": "RuggyRouter",
  "sourceName": "contracts/ruggy-periphery/RuggyRouter.sol",
  "abi": [
    {
      "inputs": [
        {
          "internalType": "address",
          "name": "_factory",
          "type": "address"
        },
        {
          "internalType": "address",
          "name": "_WAVAX",
          "type": "address"
        }
      ],
      "stateMutability": "nonpayable",
      "type": "constructor"
    },
    {
      "inputs": [],
      "name": "WAVAX",
      "outputs": [
        {
          "internalType": "address",
          "name": "",
          "type": "address"
        }
      ],
      "stateMutability": "view",
      "type": "function"
    },
    {
      "inputs": [
        {
          "internalType": "address",
          "name": "tokenA",
          "type": "address"
        },
        {
          "internalType": "address",
          "name": "tokenB",
          "type": "address"
        },
        {
          "internalType": "uint256",
          "name": "amountADesired",
          "type": "uint256"
        },
        {
          "internalType": "uint256",
          "name": "amountBDesired",
          "type": "uint256"
        },
        {
          "internalType": "uint256",
          "name": "amountAMin",
          "type": "uint256"
        },
        {
          "internalType": "uint256",
          "name": "amountBMin",
          "type": "uint256"
        },
        {
          "internalType": "address",
          "name": "to",
          "type": "address"
        },
        {
          "internalType": "uint256",
          "name": "deadline",
          "type": "uint256"
        }
      ],
      "name": "addLiquidity",
      "outputs": [
        {
          "internalType": "uint256",
          "name": "amountA",
          "type": "uint256"
        },
        {
          "internalType": "uint256",
          "name": "amountB",
          "type": "uint256"
        },
        {
          "internalType": "uint256",
          "name": "liquidity",
          "type": "uint256"
        }
      ],
      "stateMutability": "nonpayable",
      "type": "function"
    },
    {
      "inputs": [
        {
          "internalType": "address",
          "name": "token",
          "type": "address"
        },
        {
          "internalType": "uint256",
          "name": "amountTokenDesired",
          "type": "uint256"
        },
        {
          "internalType": "uint256",
          "name": "amountTokenMin",
          "type": "uint256"
        },
        {
          "internalType": "uint256",
          "name": "amountAVAXMin",
          "type": "uint256"
        },
        {
          "internalType": "address",
          "name": "to",
          "type": "address"
        },
        {
          "internalType": "uint256",
          "name": "deadline",
          "type": "uint256"
        }
      ],
      "name": "addLiquidityAVAX",
      "outputs": [
        {
          "internalType": "uint256",
          "name": "amountToken",
          "type": "uint256"
        },
        {
          "internalType": "uint256",
          "name": "amountAVAX",
          "type": "uint256"
        },
        {
          "internalType": "uint256",
          "name": "liquidity",
          "type": "uint256"
        }
      ],
      "stateMutability": "payable",
      "type": "function"
    },
    {
      "inputs": [],
      "name": "factory",
      "outputs": [
        {
          "internalType": "address",
          "name": "",
          "type": "address"
        }
      ],
      "stateMutability": "view",
      "type": "function"
    },
    {
      "inputs": [
        {
          "internalType": "uint256",
          "name": "amountOut",
          "type": "uint256"
        },
        {
          "internalType": "uint256",
          "name": "reserveIn",
          "type": "uint256"
        },
        {
          "internalType": "uint256",
          "name": "reserveOut",
          "type": "uint256"
        }
      ],
      "name": "getAmountIn",
      "outputs": [
        {
          "internalType": "uint256",
          "name": "amountIn",
          "type": "uint256"
        }
      ],
      "stateMutability": "pure",
      "type": "function"
    },
    {
      "inputs": [
        {
          "internalType": "uint256",
          "name": "amountIn",
          "type": "uint256"
        },
        {
          "internalType": "uint256",
          "name": "reserveIn",
          "type": "uint256"
        },
        {
          "internalType": "uint256",
          "name": "reserveOut",
          "type": "uint256"
        }
      ],
      "name": "getAmountOut",
      "outputs": [
        {
          "internalType": "uint256",
          "name": "amountOut",
          "type": "uint256"
        }
      ],
      "stateMutability": "pure",
      "type": "function"
    },
    {
      "inputs": [
        {
          "internalType": "uint256",
          "name": "amountOut",
          "type": "uint256"
        },
        {
          "internalType": "address[]",
          "name": "path",
          "type": "address[]"
        }
      ],
      "name": "getAmountsIn",
      "outputs": [
        {
          "internalType": "uint256[]",
          "name": "amounts",
          "type": "uint256[]"
        }
      ],
      "stateMutability": "view",
      "type": "function"
    },
    {
      "inputs": [
        {
          "internalType": "uint256",
          "name": "amountIn",
          "type": "uint256"
        },
        {
          "internalType": "address[]",
          "name": "path",
          "type": "address[]"
        }
      ],
      "name": "getAmountsOut",
      "outputs": [
        {
          "internalType": "uint256[]",
          "name": "amounts",
          "type": "uint256[]"
        }
      ],
      "stateMutability": "view",
      "type": "function"
    },
    {
      "inputs": [
        {
          "internalType": "uint256",
          "name": "amountA",
          "type": "uint256"
        },
        {
          "internalType": "uint256",
          "name": "reserveA",
          "type": "uint256"
        },
        {
          "internalType": "uint256",
          "name": "reserveB",
          "type": "uint256"
        }
      ],
      "name": "quote",
      "outputs": [
        {
          "internalType": "uint256",
          "name": "amountB",
          "type": "uint256"
        }
      ],
      "stateMutability": "pure",
      "type": "function"
    },
    {
      "inputs": [
        {
          "internalType": "address",
          "name": "tokenA",
          "type": "address"
        },
        {
          "internalType": "address",
          "name": "tokenB",
          "type": "address"
        },
        {
          "internalType": "uint256",
          "name": "liquidity",
          "type": "uint256"
        },
        {
          "internalType": "uint256",
          "name": "amountAMin",
          "type": "uint256"
        },
        {
          "internalType": "uint256",
          "name": "amountBMin",
          "type": "uint256"
        },
        {
          "internalType": "address",
          "name": "to",
          "type": "address"
        },
        {
          "internalType": "uint256",
          "name": "deadline",
          "type": "uint256"
        }
      ],
      "name": "removeLiquidity",
      "outputs": [
        {
          "internalType": "uint256",
          "name": "amountA",
          "type": "uint256"
        },
        {
          "internalType": "uint256",
          "name": "amountB",
          "type": "uint256"
        }
      ],
      "stateMutability": "nonpayable",
      "type": "function"
    },
    {
      "inputs": [
        {
          "internalType": "address",
          "name": "token",
          "type": "address"
        },
        {
          "internalType": "uint256",
          "name": "liquidity",
          "type": "uint256"
        },
        {
          "internalType": "uint256",
          "name": "amountTokenMin",
          "type": "uint256"
        },
        {
          "internalType": "uint256",
          "name": "amountAVAXMin",
          "type": "uint256"
        },
        {
          "internalType": "address",
          "name": "to",
          "type": "address"
        },
        {
          "internalType": "uint256",
          "name": "deadline",
          "type": "uint256"
        }
      ],
      "name": "removeLiquidityAVAX",
      "outputs": [
        {
          "internalType": "uint256",
          "name": "amountToken",
          "type": "uint256"
        },
        {
          "internalType": "uint256",
          "name": "amountAVAX",
          "type": "uint256"
        }
      ],
      "stateMutability": "nonpayable",
      "type": "function"
    },
    {
      "inputs": [
        {
          "internalType": "address",
          "name": "token",
          "type": "address"
        },
        {
          "internalType": "uint256",
          "name": "liquidity",
          "type": "uint256"
        },
        {
          "internalType": "uint256",
          "name": "amountTokenMin",
          "type": "uint256"
        },
        {
          "internalType": "uint256",
          "name": "amountAVAXMin",
          "type": "uint256"
        },
        {
          "internalType": "address",
          "name": "to",
          "type": "address"
        },
        {
          "internalType": "uint256",
          "name": "deadline",
          "type": "uint256"
        }
      ],
      "name": "removeLiquidityAVAXSupportingFeeOnTransferTokens",
      "outputs": [
        {
          "internalType": "uint256",
          "name": "amountAVAX",
          "type": "uint256"
        }
      ],
      "stateMutability": "nonpayable",
      "type": "function"
    },
    {
      "inputs": [
        {
          "internalType": "address",
          "name": "token",
          "type": "address"
        },
        {
          "internalType": "uint256",
          "name": "liquidity",
          "type": "uint256"
        },
        {
          "internalType": "uint256",
          "name": "amountTokenMin",
          "type": "uint256"
        },
        {
          "internalType": "uint256",
          "name": "amountAVAXMin",
          "type": "uint256"
        },
        {
          "internalType": "address",
          "name": "to",
          "type": "address"
        },
        {
          "internalType": "uint256",
          "name": "deadline",
          "type": "uint256"
        },
        {
          "internalType": "bool",
          "name": "approveMax",
          "type": "bool"
        },
        {
          "internalType": "uint8",
          "name": "v",
          "type": "uint8"
        },
        {
          "internalType": "bytes32",
          "name": "r",
          "type": "bytes32"
        },
        {
          "internalType": "bytes32",
          "name": "s",
          "type": "bytes32"
        }
      ],
      "name": "removeLiquidityAVAXWithPermit",
      "outputs": [
        {
          "internalType": "uint256",
          "name": "amountToken",
          "type": "uint256"
        },
        {
          "internalType": "uint256",
          "name": "amountAVAX",
          "type": "uint256"
        }
      ],
      "stateMutability": "nonpayable",
      "type": "function"
    },
    {
      "inputs": [
        {
          "internalType": "address",
          "name": "token",
          "type": "address"
        },
        {
          "internalType": "uint256",
          "name": "liquidity",
          "type": "uint256"
        },
        {
          "internalType": "uint256",
          "name": "amountTokenMin",
          "type": "uint256"
        },
        {
          "internalType": "uint256",
          "name": "amountAVAXMin",
          "type": "uint256"
        },
        {
          "internalType": "address",
          "name": "to",
          "type": "address"
        },
        {
          "internalType": "uint256",
          "name": "deadline",
          "type": "uint256"
        },
        {
          "internalType": "bool",
          "name": "approveMax",
          "type": "bool"
        },
        {
          "internalType": "uint8",
          "name": "v",
          "type": "uint8"
        },
        {
          "internalType": "bytes32",
          "name": "r",
          "type": "bytes32"
        },
        {
          "internalType": "bytes32",
          "name": "s",
          "type": "bytes32"
        }
      ],
      "name": "removeLiquidityAVAXWithPermitSupportingFeeOnTransferTokens",
      "outputs": [
        {
          "internalType": "uint256",
          "name": "amountAVAX",
          "type": "uint256"
        }
      ],
      "stateMutability": "nonpayable",
      "type": "function"
    },
    {
      "inputs": [
        {
          "internalType": "address",
          "name": "tokenA",
          "type": "address"
        },
        {
          "internalType": "address",
          "name": "tokenB",
          "type": "address"
        },
        {
          "internalType": "uint256",
          "name": "liquidity",
          "type": "uint256"
        },
        {
          "internalType": "uint256",
          "name": "amountAMin",
          "type": "uint256"
        },
        {
          "internalType": "uint256",
          "name": "amountBMin",
          "type": "uint256"
        },
        {
          "internalType": "address",
          "name": "to",
          "type": "address"
        },
        {
          "internalType": "uint256",
          "name": "deadline",
          "type": "uint256"
        },
        {
          "internalType": "bool",
          "name": "approveMax",
          "type": "bool"
        },
        {
          "internalType": "uint8",
          "name": "v",
          "type": "uint8"
        },
        {
          "internalType": "bytes32",
          "name": "r",
          "type": "bytes32"
        },
        {
          "internalType": "bytes32",
          "name": "s",
          "type": "bytes32"
        }
      ],
      "name": "removeLiquidityWithPermit",
      "outputs": [
        {
          "internalType": "uint256",
          "name": "amountA",
          "type": "uint256"
        },
        {
          "internalType": "uint256",
          "name": "amountB",
          "type": "uint256"
        }
      ],
      "stateMutability": "nonpayable",
      "type": "function"
    },
    {
      "inputs": [
        {
          "internalType": "uint256",
          "name": "amountOut",
          "type": "uint256"
        },
        {
          "internalType": "address[]",
          "name": "path",
          "type": "address[]"
        },
        {
          "internalType": "address",
          "name": "to",
          "type": "address"
        },
        {
          "internalType": "uint256",
          "name": "deadline",
          "type": "uint256"
        }
      ],
      "name": "swapAVAXForExactTokens",
      "outputs": [
        {
          "internalType": "uint256[]",
          "name": "amounts",
          "type": "uint256[]"
        }
      ],
      "stateMutability": "payable",
      "type": "function"
    },
    {
      "inputs": [
        {
          "internalType": "uint256",
          "name": "amountOutMin",
          "type": "uint256"
        },
        {
          "internalType": "address[]",
          "name": "path",
          "type": "address[]"
        },
        {
          "internalType": "address",
          "name": "to",
          "type": "address"
        },
        {
          "internalType": "uint256",
          "name": "deadline",
          "type": "uint256"
        }
      ],
      "name": "swapExactAVAXForTokens",
      "outputs": [
        {
          "internalType": "uint256[]",
          "name": "amounts",
          "type": "uint256[]"
        }
      ],
      "stateMutability": "payable",
      "type": "function"
    },
    {
      "inputs": [
        {
          "internalType": "uint256",
          "name": "amountOutMin",
          "type": "uint256"
        },
        {
          "internalType": "address[]",
          "name": "path",
          "type": "address[]"
        },
        {
          "internalType": "address",
          "name": "to",
          "type": "address"
        },
        {
          "internalType": "uint256",
          "name": "deadline",
          "type": "uint256"
        }
      ],
      "name": "swapExactAVAXForTokensSupportingFeeOnTransferTokens",
      "outputs": [],
      "stateMutability": "payable",
      "type": "function"
    },
    {
      "inputs": [
        {
          "internalType": "uint256",
          "name": "amountIn",
          "type": "uint256"
        },
        {
          "internalType": "uint256",
          "name": "amountOutMin",
          "type": "uint256"
        },
        {
          "internalType": "address[]",
          "name": "path",
          "type": "address[]"
        },
        {
          "internalType": "address",
          "name": "to",
          "type": "address"
        },
        {
          "internalType": "uint256",
          "name": "deadline",
          "type": "uint256"
        }
      ],
      "name": "swapExactTokensForAVAX",
      "outputs": [
        {
          "internalType": "uint256[]",
          "name": "amounts",
          "type": "uint256[]"
        }
      ],
      "stateMutability": "nonpayable",
      "type": "function"
    },
    {
      "inputs": [
        {
          "internalType": "uint256",
          "name": "amountIn",
          "type": "uint256"
        },
        {
          "internalType": "uint256",
          "name": "amountOutMin",
          "type": "uint256"
        },
        {
          "internalType": "address[]",
          "name": "path",
          "type": "address[]"
        },
        {
          "internalType": "address",
          "name": "to",
          "type": "address"
        },
        {
          "internalType": "uint256",
          "name": "deadline",
          "type": "uint256"
        }
      ],
      "name": "swapExactTokensForAVAXSupportingFeeOnTransferTokens",
      "outputs": [],
      "stateMutability": "nonpayable",
      "type": "function"
    },
    {
      "inputs": [
        {
          "internalType": "uint256",
          "name": "amountIn",
          "type": "uint256"
        },
        {
          "internalType": "uint256",
          "name": "amountOutMin",
          "type": "uint256"
        },
        {
          "internalType": "address[]",
          "name": "path",
          "type": "address[]"
        },
        {
          "internalType": "address",
          "name": "to",
          "type": "address"
        },
        {
          "internalType": "uint256",
          "name": "deadline",
          "type": "uint256"
        }
      ],
      "name": "swapExactTokensForTokens",
      "outputs": [
        {
          "internalType": "uint256[]",
          "name": "amounts",
          "type": "uint256[]"
        }
      ],
      "stateMutability": "nonpayable",
      "type": "function"
    },
    {
      "inputs": [
        {
          "internalType": "uint256",
          "name": "amountIn",
          "type": "uint256"
        },
        {
          "internalType": "uint256",
          "name": "amountOutMin",
          "type": "uint256"
        },
        {
          "internalType": "address[]",
          "name": "path",
          "type": "address[]"
        },
        {
          "internalType": "address",
          "name": "to",
          "type": "address"
        },
        {
          "internalType": "uint256",
          "name": "deadline",
          "type": "uint256"
        }
      ],
      "name": "swapExactTokensForTokensSupportingFeeOnTransferTokens",
      "outputs": [],
      "stateMutability": "nonpayable",
      "type": "function"
    },
    {
      "inputs": [
        {
          "internalType": "uint256",
          "name": "amountOut",
          "type": "uint256"
        },
        {
          "internalType": "uint256",
          "name": "amountInMax",
          "type": "uint256"
        },
        {
          "internalType": "address[]",
          "name": "path",
          "type": "address[]"
        },
        {
          "internalType": "address",
          "name": "to",
          "type": "address"
        },
        {
          "internalType": "uint256",
          "name": "deadline",
          "type": "uint256"
        }
      ],
      "name": "swapTokensForExactAVAX",
      "outputs": [
        {
          "internalType": "uint256[]",
          "name": "amounts",
          "type": "uint256[]"
        }
      ],
      "stateMutability": "nonpayable",
      "type": "function"
    },
    {
      "inputs": [
        {
          "internalType": "uint256",
          "name": "amountOut",
          "type": "uint256"
        },
        {
          "internalType": "uint256",
          "name": "amountInMax",
          "type": "uint256"
        },
        {
          "internalType": "address[]",
          "name": "path",
          "type": "address[]"
        },
        {
          "internalType": "address",
          "name": "to",
          "type": "address"
        },
        {
          "internalType": "uint256",
          "name": "deadline",
          "type": "uint256"
        }
      ],
      "name": "swapTokensForExactTokens",
      "outputs": [
        {
          "internalType": "uint256[]",
          "name": "amounts",
          "type": "uint256[]"
        }
      ],
      "stateMutability": "nonpayable",
      "type": "function"
    },
    {
      "stateMutability": "payable",
      "type": "receive"
    }
  ],
  "bytecode": "0x60c060405234801561001057600080fd5b506040516200492c3803806200492c8339818101604052604081101561003557600080fd5b5080516020909101516001600160601b0319606092831b8116608052911b1660a05260805160601c60a05160601c6147a7620001856000398061019f5280610e5e5280610f9c5280610fd7528061154d52806116ef52806117a5528061181c52806118cb52806119a85280611ab45280611b6a5280611c495280611ef7528061204c52806120d4528061227752806123ac5280612504528061258c52806129a55280612a4c5280612ac05280612ec75280612f1d5280612f515280612fc5525080610d095280610d425280610e3c52806110bd528061119452806112c952806115ed5280611ce95280611df85280611f9c52806121065280612255528061245152806125be528061272352806129345280612af25280612d045280612d965280612efb5280613a1a5280613a5d5280613c085280613d8e52806141f852806142bf528061433f52506147a76000f3fe60806040526004361061018f5760003560e01c806385f8c259116100d6578063baa2abde1161007f578063d06ca61f11610059578063d06ca61f14610b70578063e8e3370014610c27578063f91b3f7214610ca7576101c8565b8063baa2abde14610a78578063c45a015514610ad5578063c57559dd14610aea576101c8565b80639fc27226116100b05780639fc2722614610949578063a2a1623d146109bc578063ad615dec14610a42576101c8565b806385f8c259146107f55780638803dbee1461082b5780638a657e67146108c3576101c8565b80635c11d7951161013857806373bc79cf1161011257806373bc79cf14610672578063762b1562146106c55780637a42416a1461075d576101c8565b80635c11d79514610511578063676528d1146105a957806373b295c214610641576101c8565b80632c407024116101695780632c407024146103b357806333c6b7251461042657806338ed173914610479576101c8565b8063054d50d4146101cd5780631f00ca74146102155780632195995c1461031c576101c8565b366101c857336001600160a01b037f000000000000000000000000000000000000000000000000000000000000000016146101c657fe5b005b600080fd5b3480156101d957600080fd5b50610203600480360360608110156101f057600080fd5b5080359060208101359060400135610ced565b60408051918252519081900360200190f35b34801561022157600080fd5b506102cc6004803603604081101561023857600080fd5b8135919081019060408101602082013564010000000081111561025a57600080fd5b82018360208201111561026c57600080fd5b8035906020019184602083028401116401000000008311171561028e57600080fd5b919080806020026020016040519081016040528093929190818152602001838360200280828437600092019190915250929550610d02945050505050565b60408051602080825283518183015283519192839290830191858101910280838360005b838110156103085781810151838201526020016102f0565b505050509050019250505060405180910390f35b34801561032857600080fd5b5061039a600480360361016081101561034057600080fd5b506001600160a01b038135811691602081013582169160408201359160608101359160808201359160a08101359091169060c08101359060e081013515159060ff6101008201351690610120810135906101400135610d38565b6040805192835260208301919091528051918290030190f35b3480156103bf57600080fd5b5061039a60048036036101408110156103d757600080fd5b506001600160a01b0381358116916020810135916040820135916060810135916080820135169060a08101359060c081013515159060ff60e08201351690610100810135906101200135610e32565b34801561043257600080fd5b5061039a600480360360c081101561044957600080fd5b506001600160a01b0381358116916020810135916040820135916060810135916080820135169060a00135610f46565b34801561048557600080fd5b506102cc600480360360a081101561049c57600080fd5b8135916020810135918101906060810160408201356401000000008111156104c357600080fd5b8201836020820111156104d557600080fd5b803590602001918460208302840111640100000000831117156104f757600080fd5b91935091506001600160a01b038135169060200135611069565b34801561051d57600080fd5b506101c6600480360360a081101561053457600080fd5b81359160208101359181019060608101604082013564010000000081111561055b57600080fd5b82018360208201111561056d57600080fd5b8035906020019184602083028401116401000000008311171561058f57600080fd5b91935091506001600160a01b038135169060200135611256565b3480156105b557600080fd5b506102cc600480360360a08110156105cc57600080fd5b8135916020810135918101906060810160408201356401000000008111156105f357600080fd5b82018360208201111561060557600080fd5b8035906020019184602083028401116401000000008311171561062757600080fd5b91935091506001600160a01b0381351690602001356114f4565b34801561064d57600080fd5b506106566117a3565b604080516001600160a01b039092168252519081900360200190f35b34801561067e57600080fd5b50610203600480360360c081101561069557600080fd5b506001600160a01b0381358116916020810135916040820135916060810135916080820135169060a001356117c7565b3480156106d157600080fd5b506101c6600480360360a08110156106e857600080fd5b81359160208101359181019060608101604082013564010000000081111561070f57600080fd5b82018360208201111561072157600080fd5b8035906020019184602083028401116401000000008311171561074357600080fd5b91935091506001600160a01b038135169060200135611951565b34801561076957600080fd5b506102cc600480360360a081101561078057600080fd5b8135916020810135918101906060810160408201356401000000008111156107a757600080fd5b8201836020820111156107b957600080fd5b803590602001918460208302840111640100000000831117156107db57600080fd5b91935091506001600160a01b038135169060200135611bf0565b34801561080157600080fd5b506102036004803603606081101561081857600080fd5b5080359060208101359060400135611d97565b34801561083757600080fd5b506102cc600480360360a081101561084e57600080fd5b81359160208101359181019060608101604082013564010000000081111561087557600080fd5b82018360208201111561088757600080fd5b803590602001918460208302840111640100000000831117156108a957600080fd5b91935091506001600160a01b038135169060200135611da4565b6102cc600480360360808110156108d957600080fd5b813591908101906040810160208201356401000000008111156108fb57600080fd5b82018360208201111561090d57600080fd5b8035906020019184602083028401116401000000008311171561092f57600080fd5b91935091506001600160a01b038135169060200135611ea6565b34801561095557600080fd5b50610203600480360361014081101561096d57600080fd5b506001600160a01b0381358116916020810135916040820135916060810135916080820135169060a08101359060c081013515159060ff60e0820135169061010081013590610120013561224d565b6102cc600480360360808110156109d257600080fd5b813591908101906040810160208201356401000000008111156109f457600080fd5b820183602082011115610a0657600080fd5b80359060200191846020830284011164010000000083111715610a2857600080fd5b91935091506001600160a01b03813516906020013561235b565b348015610a4e57600080fd5b5061020360048036036060811015610a6557600080fd5b50803590602081013590604001356126bf565b348015610a8457600080fd5b5061039a600480360360e0811015610a9b57600080fd5b506001600160a01b038135811691602081013582169160408201359160608101359160808201359160a08101359091169060c001356126cc565b348015610ae157600080fd5b50610656612932565b6101c660048036036080811015610b0057600080fd5b81359190810190604081016020820135640100000000811115610b2257600080fd5b820183602082011115610b3457600080fd5b80359060200191846020830284011164010000000083111715610b5657600080fd5b91935091506001600160a01b038135169060200135612956565b348015610b7c57600080fd5b506102cc60048036036040811015610b9357600080fd5b81359190810190604081016020820135640100000000811115610bb557600080fd5b820183602082011115610bc757600080fd5b80359060200191846020830284011164010000000083111715610be957600080fd5b919080806020026020016040519081016040528093929190818152602001838360200280828437600092019190915250929550612cfd945050505050565b348015610c3357600080fd5b50610c896004803603610100811015610c4b57600080fd5b506001600160a01b038135811691602081013582169160408201359160608101359160808201359160a08101359160c0820135169060e00135612d2a565b60408051938452602084019290925282820152519081900360600190f35b610c89600480360360c0811015610cbd57600080fd5b506001600160a01b0381358116916020810135916040820135916060810135916080820135169060a00135612e6f565b6000610cfa84848461311d565b949350505050565b6060610d2f7f0000000000000000000000000000000000000000000000000000000000000000848461320d565b90505b92915050565b6000806000610d687f00000000000000000000000000000000000000000000000000000000000000008f8f61335a565b9050600087610d77578c610d7b565b6000195b6040805163d505accf60e01b815233600482015230602482015260448101839052606481018c905260ff8a16608482015260a4810189905260c4810188905290519192506001600160a01b0384169163d505accf9160e48082019260009290919082900301818387803b158015610df157600080fd5b505af1158015610e05573d6000803e3d6000fd5b50505050610e188f8f8f8f8f8f8f6126cc565b809450819550505050509b509b9950505050505050505050565b6000806000610e827f00000000000000000000000000000000000000000000000000000000000000008e7f000000000000000000000000000000000000000000000000000000000000000061335a565b9050600087610e91578c610e95565b6000195b6040805163d505accf60e01b815233600482015230602482015260448101839052606481018c905260ff8a16608482015260a4810189905260c4810188905290519192506001600160a01b0384169163d505accf9160e48082019260009290919082900301818387803b158015610f0b57600080fd5b505af1158015610f1f573d6000803e3d6000fd5b50505050610f318e8e8e8e8e8e610f46565b909f909e509c50505050505050505050505050565b6000808242811015610f96576040805162461bcd60e51b8152602060048201526014602482015273149d59d9de549bdd5d195c8e881156141254915160621b604482015290519081900360640190fd5b610fc5897f00000000000000000000000000000000000000000000000000000000000000008a8a8a308a6126cc565b9093509150610fd5898685613432565b7f00000000000000000000000000000000000000000000000000000000000000006001600160a01b0316632e1a7d4d836040518263ffffffff1660e01b815260040180828152602001915050600060405180830381600087803b15801561103b57600080fd5b505af115801561104f573d6000803e3d6000fd5b5050505061105d85836135ca565b50965096945050505050565b606081428110156110b8576040805162461bcd60e51b8152602060048201526014602482015273149d59d9de549bdd5d195c8e881156141254915160621b604482015290519081900360640190fd5b6111167f0000000000000000000000000000000000000000000000000000000000000000898888808060200260200160405190810160405280939291908181526020018383602002808284376000920191909152506136c292505050565b9150868260018451038151811061112957fe5b6020026020010151101561116e5760405162461bcd60e51b81526004018080602001828103825260278152602001806146366027913960400191505060405180910390fd5b61120c8686600081811061117e57fe5b905060200201356001600160a01b0316336111f27f00000000000000000000000000000000000000000000000000000000000000008a8a60008181106111c057fe5b905060200201356001600160a01b03168b8b60018181106111dd57fe5b905060200201356001600160a01b031661335a565b856000815181106111ff57fe5b60200260200101516137f9565b61124b8287878080602002602001604051908101604052809392919081815260200183836020028082843760009201919091525089925061396b915050565b509695505050505050565b80428110156112a3576040805162461bcd60e51b8152602060048201526014602482015273149d59d9de549bdd5d195c8e881156141254915160621b604482015290519081900360640190fd5b611318858560008181106112b357fe5b905060200201356001600160a01b0316336113127f0000000000000000000000000000000000000000000000000000000000000000898960008181106112f557fe5b905060200201356001600160a01b03168a8a60018181106111dd57fe5b8a6137f9565b60008585600019810181811061132a57fe5b905060200201356001600160a01b03166001600160a01b03166370a08231856040518263ffffffff1660e01b815260040180826001600160a01b03166001600160a01b0316815260200191505060206040518083038186803b15801561138f57600080fd5b505afa1580156113a3573d6000803e3d6000fd5b505050506040513d60208110156113b957600080fd5b505160408051602088810282810182019093528882529293506113fb929091899189918291850190849080828437600092019190915250889250613bb1915050565b866114ad828888600019810181811061141057fe5b905060200201356001600160a01b03166001600160a01b03166370a08231886040518263ffffffff1660e01b815260040180826001600160a01b03166001600160a01b0316815260200191505060206040518083038186803b15801561147557600080fd5b505afa158015611489573d6000803e3d6000fd5b505050506040513d602081101561149f57600080fd5b50519063ffffffff613edc16565b10156114ea5760405162461bcd60e51b81526004018080602001828103825260278152602001806146366027913960400191505060405180910390fd5b5050505050505050565b60608142811015611543576040805162461bcd60e51b8152602060048201526014602482015273149d59d9de549bdd5d195c8e881156141254915160621b604482015290519081900360640190fd5b6001600160a01b037f0000000000000000000000000000000000000000000000000000000000000000168686600019810181811061157d57fe5b905060200201356001600160a01b03166001600160a01b0316146115e8576040805162461bcd60e51b815260206004820152601960248201527f5275676779526f757465723a20494e56414c49445f5041544800000000000000604482015290519081900360640190fd5b6116467f0000000000000000000000000000000000000000000000000000000000000000898888808060200260200160405190810160405280939291908181526020018383602002808284376000920191909152506136c292505050565b9150868260018451038151811061165957fe5b6020026020010151101561169e5760405162461bcd60e51b81526004018080602001828103825260278152602001806146366027913960400191505060405180910390fd5b6116ae8686600081811061117e57fe5b6116ed8287878080602002602001604051908101604052809392919081815260200183836020028082843760009201919091525030925061396b915050565b7f00000000000000000000000000000000000000000000000000000000000000006001600160a01b0316632e1a7d4d8360018551038151811061172c57fe5b60200260200101516040518263ffffffff1660e01b815260040180828152602001915050600060405180830381600087803b15801561176a57600080fd5b505af115801561177e573d6000803e3d6000fd5b5050505061124b848360018551038151811061179657fe5b60200260200101516135ca565b7f000000000000000000000000000000000000000000000000000000000000000081565b60008142811015611816576040805162461bcd60e51b8152602060048201526014602482015273149d59d9de549bdd5d195c8e881156141254915160621b604482015290519081900360640190fd5b611845887f000000000000000000000000000000000000000000000000000000000000000089898930896126cc565b604080516370a0823160e01b815230600482015290519194506118c992508a9187916001600160a01b038416916370a0823191602480820192602092909190829003018186803b15801561189857600080fd5b505afa1580156118ac573d6000803e3d6000fd5b505050506040513d60208110156118c257600080fd5b5051613432565b7f00000000000000000000000000000000000000000000000000000000000000006001600160a01b0316632e1a7d4d836040518263ffffffff1660e01b815260040180828152602001915050600060405180830381600087803b15801561192f57600080fd5b505af1158015611943573d6000803e3d6000fd5b5050505061124b84836135ca565b804281101561199e576040805162461bcd60e51b8152602060048201526014602482015273149d59d9de549bdd5d195c8e881156141254915160621b604482015290519081900360640190fd5b6001600160a01b037f000000000000000000000000000000000000000000000000000000000000000016858560001981018181106119d857fe5b905060200201356001600160a01b03166001600160a01b031614611a43576040805162461bcd60e51b815260206004820152601960248201527f5275676779526f757465723a20494e56414c49445f5041544800000000000000604482015290519081900360640190fd5b611a53858560008181106112b357fe5b611a91858580806020026020016040519081016040528093929190818152602001838360200280828437600092019190915250309250613bb1915050565b604080516370a0823160e01b815230600482015290516000916001600160a01b037f000000000000000000000000000000000000000000000000000000000000000016916370a0823191602480820192602092909190829003018186803b158015611afb57600080fd5b505afa158015611b0f573d6000803e3d6000fd5b505050506040513d6020811015611b2557600080fd5b5051905086811015611b685760405162461bcd60e51b81526004018080602001828103825260278152602001806146366027913960400191505060405180910390fd5b7f00000000000000000000000000000000000000000000000000000000000000006001600160a01b0316632e1a7d4d826040518263ffffffff1660e01b815260040180828152602001915050600060405180830381600087803b158015611bce57600080fd5b505af1158015611be2573d6000803e3d6000fd5b505050506114ea84826135ca565b60608142811015611c3f576040805162461bcd60e51b8152602060048201526014602482015273149d59d9de549bdd5d195c8e881156141254915160621b604482015290519081900360640190fd5b6001600160a01b037f00000000000000000000000000000000000000000000000000000000000000001686866000198101818110611c7957fe5b905060200201356001600160a01b03166001600160a01b031614611ce4576040805162461bcd60e51b815260206004820152601960248201527f5275676779526f757465723a20494e56414c49445f5041544800000000000000604482015290519081900360640190fd5b611d427f00000000000000000000000000000000000000000000000000000000000000008988888080602002602001604051908101604052809392919081815260200183836020028082843760009201919091525061320d92505050565b91508682600081518110611d5257fe5b6020026020010151111561169e5760405162461bcd60e51b81526004018080602001828103825260238152602001806146e86023913960400191505060405180910390fd5b6000610cfa848484613f34565b60608142811015611df3576040805162461bcd60e51b8152602060048201526014602482015273149d59d9de549bdd5d195c8e881156141254915160621b604482015290519081900360640190fd5b611e517f00000000000000000000000000000000000000000000000000000000000000008988888080602002602001604051908101604052809392919081815260200183836020028082843760009201919091525061320d92505050565b91508682600081518110611e6157fe5b6020026020010151111561116e5760405162461bcd60e51b81526004018080602001828103825260238152602001806146e86023913960400191505060405180910390fd5b60608142811015611ef5576040805162461bcd60e51b8152602060048201526014602482015273149d59d9de549bdd5d195c8e881156141254915160621b604482015290519081900360640190fd5b7f00000000000000000000000000000000000000000000000000000000000000006001600160a01b031686866000818110611f2c57fe5b905060200201356001600160a01b03166001600160a01b031614611f97576040805162461bcd60e51b815260206004820152601960248201527f5275676779526f757465723a20494e56414c49445f5041544800000000000000604482015290519081900360640190fd5b611ff57f00000000000000000000000000000000000000000000000000000000000000008888888080602002602001604051908101604052809392919081815260200183836020028082843760009201919091525061320d92505050565b9150348260008151811061200557fe5b6020026020010151111561204a5760405162461bcd60e51b81526004018080602001828103825260238152602001806146e86023913960400191505060405180910390fd5b7f00000000000000000000000000000000000000000000000000000000000000006001600160a01b031663d0e30db08360008151811061208657fe5b60200260200101516040518263ffffffff1660e01b81526004016000604051808303818588803b1580156120b957600080fd5b505af11580156120cd573d6000803e3d6000fd5b50505050507f00000000000000000000000000000000000000000000000000000000000000006001600160a01b031663a9059cbb6121327f0000000000000000000000000000000000000000000000000000000000000000898960008181106112f557fe5b8460008151811061213f57fe5b60200260200101516040518363ffffffff1660e01b815260040180836001600160a01b03166001600160a01b0316815260200182815260200192505050602060405180830381600087803b15801561219657600080fd5b505af11580156121aa573d6000803e3d6000fd5b505050506040513d60208110156121c057600080fd5b50516121c857fe5b6122078287878080602002602001604051908101604052809392919081815260200183836020028082843760009201919091525089925061396b915050565b8160008151811061221457fe5b602002602001015134111561224357612243338360008151811061223457fe5b602002602001015134036135ca565b5095945050505050565b60008061229b7f00000000000000000000000000000000000000000000000000000000000000008d7f000000000000000000000000000000000000000000000000000000000000000061335a565b90506000866122aa578b6122ae565b6000195b6040805163d505accf60e01b815233600482015230602482015260448101839052606481018b905260ff8916608482015260a4810188905260c4810187905290519192506001600160a01b0384169163d505accf9160e48082019260009290919082900301818387803b15801561232457600080fd5b505af1158015612338573d6000803e3d6000fd5b5050505061234a8d8d8d8d8d8d6117c7565b9d9c50505050505050505050505050565b606081428110156123aa576040805162461bcd60e51b8152602060048201526014602482015273149d59d9de549bdd5d195c8e881156141254915160621b604482015290519081900360640190fd5b7f00000000000000000000000000000000000000000000000000000000000000006001600160a01b0316868660008181106123e157fe5b905060200201356001600160a01b03166001600160a01b03161461244c576040805162461bcd60e51b815260206004820152601960248201527f5275676779526f757465723a20494e56414c49445f5041544800000000000000604482015290519081900360640190fd5b6124aa7f0000000000000000000000000000000000000000000000000000000000000000348888808060200260200160405190810160405280939291908181526020018383602002808284376000920191909152506136c292505050565b915086826001845103815181106124bd57fe5b602002602001015110156125025760405162461bcd60e51b81526004018080602001828103825260278152602001806146366027913960400191505060405180910390fd5b7f00000000000000000000000000000000000000000000000000000000000000006001600160a01b031663d0e30db08360008151811061253e57fe5b60200260200101516040518263ffffffff1660e01b81526004016000604051808303818588803b15801561257157600080fd5b505af1158015612585573d6000803e3d6000fd5b50505050507f00000000000000000000000000000000000000000000000000000000000000006001600160a01b031663a9059cbb6125ea7f0000000000000000000000000000000000000000000000000000000000000000898960008181106112f557fe5b846000815181106125f757fe5b60200260200101516040518363ffffffff1660e01b815260040180836001600160a01b03166001600160a01b0316815260200182815260200192505050602060405180830381600087803b15801561264e57600080fd5b505af1158015612662573d6000803e3d6000fd5b505050506040513d602081101561267857600080fd5b505161268057fe5b6122438287878080602002602001604051908101604052809392919081815260200183836020028082843760009201919091525089925061396b915050565b6000610cfa848484614024565b600080824281101561271c576040805162461bcd60e51b8152602060048201526014602482015273149d59d9de549bdd5d195c8e881156141254915160621b604482015290519081900360640190fd5b60006127497f00000000000000000000000000000000000000000000000000000000000000008c8c61335a565b604080516323b872dd60e01b81523360048201526001600160a01b03831660248201819052604482018d9052915192935090916323b872dd916064808201926020929091908290030181600087803b1580156127a457600080fd5b505af11580156127b8573d6000803e3d6000fd5b505050506040513d60208110156127ce57600080fd5b5050604080517f89afcb440000000000000000000000000000000000000000000000000000000081526001600160a01b03888116600483015282516000938493928616926389afcb44926024808301939282900301818787803b15801561283457600080fd5b505af1158015612848573d6000803e3d6000fd5b505050506040513d604081101561285e57600080fd5b508051602090910151909250905060006128788e8e6140d0565b509050806001600160a01b03168e6001600160a01b03161461289b57818361289e565b82825b90975095508a8710156128e25760405162461bcd60e51b81526004018080602001828103825260228152602001806146c66022913960400191505060405180910390fd5b898610156129215760405162461bcd60e51b815260040180806020018281038252602281526020018061472c6022913960400191505060405180910390fd5b505050505097509795505050505050565b7f000000000000000000000000000000000000000000000000000000000000000081565b80428110156129a3576040805162461bcd60e51b8152602060048201526014602482015273149d59d9de549bdd5d195c8e881156141254915160621b604482015290519081900360640190fd5b7f00000000000000000000000000000000000000000000000000000000000000006001600160a01b0316858560008181106129da57fe5b905060200201356001600160a01b03166001600160a01b031614612a45576040805162461bcd60e51b815260206004820152601960248201527f5275676779526f757465723a20494e56414c49445f5041544800000000000000604482015290519081900360640190fd5b60003490507f00000000000000000000000000000000000000000000000000000000000000006001600160a01b031663d0e30db0826040518263ffffffff1660e01b81526004016000604051808303818588803b158015612aa557600080fd5b505af1158015612ab9573d6000803e3d6000fd5b50505050507f00000000000000000000000000000000000000000000000000000000000000006001600160a01b031663a9059cbb612b1e7f0000000000000000000000000000000000000000000000000000000000000000898960008181106112f557fe5b836040518363ffffffff1660e01b815260040180836001600160a01b03166001600160a01b0316815260200182815260200192505050602060405180830381600087803b158015612b6e57600080fd5b505af1158015612b82573d6000803e3d6000fd5b505050506040513d6020811015612b9857600080fd5b5051612ba057fe5b600086866000198101818110612bb257fe5b905060200201356001600160a01b03166001600160a01b03166370a08231866040518263ffffffff1660e01b815260040180826001600160a01b03166001600160a01b0316815260200191505060206040518083038186803b158015612c1757600080fd5b505afa158015612c2b573d6000803e3d6000fd5b505050506040513d6020811015612c4157600080fd5b50516040805160208981028281018201909352898252929350612c839290918a918a918291850190849080828437600092019190915250899250613bb1915050565b876114ad8289896000198101818110612c9857fe5b905060200201356001600160a01b03166001600160a01b03166370a08231896040518263ffffffff1660e01b815260040180826001600160a01b03166001600160a01b0316815260200191505060206040518083038186803b15801561147557600080fd5b6060610d2f7f000000000000000000000000000000000000000000000000000000000000000084846136c2565b60008060008342811015612d7c576040805162461bcd60e51b8152602060048201526014602482015273149d59d9de549bdd5d195c8e881156141254915160621b604482015290519081900360640190fd5b612d8a8c8c8c8c8c8c6141ae565b90945092506000612dbc7f00000000000000000000000000000000000000000000000000000000000000008e8e61335a565b9050612dca8d3383886137f9565b612dd68c3383876137f9565b806001600160a01b0316636a627842886040518263ffffffff1660e01b815260040180826001600160a01b03166001600160a01b03168152602001915050602060405180830381600087803b158015612e2e57600080fd5b505af1158015612e42573d6000803e3d6000fd5b505050506040513d6020811015612e5857600080fd5b5051949d939c50939a509198505050505050505050565b60008060008342811015612ec1576040805162461bcd60e51b8152602060048201526014602482015273149d59d9de549bdd5d195c8e881156141254915160621b604482015290519081900360640190fd5b612eef8a7f00000000000000000000000000000000000000000000000000000000000000008b348c8c6141ae565b90945092506000612f417f00000000000000000000000000000000000000000000000000000000000000008c7f000000000000000000000000000000000000000000000000000000000000000061335a565b9050612f4f8b3383886137f9565b7f00000000000000000000000000000000000000000000000000000000000000006001600160a01b031663d0e30db0856040518263ffffffff1660e01b81526004016000604051808303818588803b158015612faa57600080fd5b505af1158015612fbe573d6000803e3d6000fd5b50505050507f00000000000000000000000000000000000000000000000000000000000000006001600160a01b031663a9059cbb82866040518363ffffffff1660e01b815260040180836001600160a01b03166001600160a01b0316815260200182815260200192505050602060405180830381600087803b15801561304357600080fd5b505af1158015613057573d6000803e3d6000fd5b505050506040513d602081101561306d57600080fd5b505161307557fe5b806001600160a01b0316636a627842886040518263ffffffff1660e01b815260040180826001600160a01b03166001600160a01b03168152602001915050602060405180830381600087803b1580156130cd57600080fd5b505af11580156130e1573d6000803e3d6000fd5b505050506040513d60208110156130f757600080fd5b505192503484101561310f5761310f338534036135ca565b505096509650969350505050565b600080841161315d5760405162461bcd60e51b815260040180806020018281038252602781526020018061460f6027913960400191505060405180910390fd5b60008311801561316d5750600082115b6131a85760405162461bcd60e51b81526004018080602001828103825260248152602001806146a26024913960400191505060405180910390fd5b60006131bc856103e663ffffffff61445416565b905060006131d0828563ffffffff61445416565b905060006131f6836131ea886103e863ffffffff61445416565b9063ffffffff6144c016565b905080828161320157fe5b04979650505050505050565b6060600282511015613266576040805162461bcd60e51b815260206004820152601a60248201527f52756767794c6962726172793a20494e56414c49445f50415448000000000000604482015290519081900360640190fd5b815167ffffffffffffffff8111801561327e57600080fd5b506040519080825280602002602001820160405280156132a8578160200160208202803683370190505b50905082816001835103815181106132bc57fe5b60209081029190910101528151600019015b80156133525760008061330b878660018603815181106132ea57fe5b60200260200101518786815181106132fe57fe5b6020026020010151614518565b9150915061332d84848151811061331e57fe5b60200260200101518383613f34565b84600185038151811061333c57fe5b60209081029190910101525050600019016132ce565b509392505050565b600080600061336985856140d0565b604080516bffffffffffffffffffffffff19606094851b811660208084019190915293851b81166034830152825160288184030181526048830184528051908501207fff0000000000000000000000000000000000000000000000000000000000000060688401529a90941b9093166069840152607d8301989098527f40231f6b438bce0797c9ada29b718a87ea0a5cea3fe9a771abdd76bd41a3e545609d808401919091528851808403909101815260bd909201909752805196019590952095945050505050565b604080516001600160a01b038481166024830152604480830185905283518084039091018152606490920183526020820180517bffffffffffffffffffffffffffffffffffffffffffffffffffffffff167fa9059cbb00000000000000000000000000000000000000000000000000000000178152925182516000946060949389169392918291908083835b602083106134dd5780518252601f1990920191602091820191016134be565b6001836020036101000a0380198251168184511680821785525050505050509050019150506000604051808303816000865af19150503d806000811461353f576040519150601f19603f3d011682016040523d82523d6000602084013e613544565b606091505b5091509150818015613572575080511580613572575080806020019051602081101561356f57600080fd5b50515b6135c3576040805162461bcd60e51b815260206004820152601f60248201527f5472616e7366657248656c7065723a205452414e534645525f4641494c454400604482015290519081900360640190fd5b5050505050565b604080516000808252602082019092526001600160a01b0384169083906040518082805190602001908083835b602083106136165780518252601f1990920191602091820191016135f7565b6001836020036101000a03801982511681845116808217855250505050505090500191505060006040518083038185875af1925050503d8060008114613678576040519150601f19603f3d011682016040523d82523d6000602084013e61367d565b606091505b50509050806136bd5760405162461bcd60e51b815260040180806020018281038252602481526020018061465d6024913960400191505060405180910390fd5b505050565b606060028251101561371b576040805162461bcd60e51b815260206004820152601a60248201527f52756767794c6962726172793a20494e56414c49445f50415448000000000000604482015290519081900360640190fd5b815167ffffffffffffffff8111801561373357600080fd5b5060405190808252806020026020018201604052801561375d578160200160208202803683370190505b509050828160008151811061376e57fe5b60200260200101818152505060005b6001835103811015613352576000806137b38786858151811061379c57fe5b60200260200101518786600101815181106132fe57fe5b915091506137d58484815181106137c657fe5b6020026020010151838361311d565b8484600101815181106137e457fe5b6020908102919091010152505060010161377d565b604080516001600160a01b0385811660248301528481166044830152606480830185905283518084039091018152608490920183526020820180517bffffffffffffffffffffffffffffffffffffffffffffffffffffffff166323b872dd60e01b17815292518251600094606094938a169392918291908083835b602083106138935780518252601f199092019160209182019101613874565b6001836020036101000a0380198251168184511680821785525050505050509050019150506000604051808303816000865af19150503d80600081146138f5576040519150601f19603f3d011682016040523d82523d6000602084013e6138fa565b606091505b5091509150818015613928575080511580613928575080806020019051602081101561392557600080fd5b50515b6139635760405162461bcd60e51b815260040180806020018281038252602481526020018061474e6024913960400191505060405180910390fd5b505050505050565b60005b6001835103811015613bab5760008084838151811061398957fe5b60200260200101518584600101815181106139a057fe5b60200260200101519150915060006139b883836140d0565b50905060008785600101815181106139cc57fe5b60200260200101519050600080836001600160a01b0316866001600160a01b0316146139fa578260006139fe565b6000835b91509150600060028a51038810613a155788613a56565b613a567f0000000000000000000000000000000000000000000000000000000000000000878c8b60020181518110613a4957fe5b602002602001015161335a565b9050613a837f0000000000000000000000000000000000000000000000000000000000000000888861335a565b6001600160a01b031663022c0d9f84848460006040519080825280601f01601f191660200182016040528015613ac0576020820181803683370190505b506040518563ffffffff1660e01b815260040180858152602001848152602001836001600160a01b03166001600160a01b0316815260200180602001828103825283818151815260200191508051906020019080838360005b83811015613b31578181015183820152602001613b19565b50505050905090810190601f168015613b5e5780820380516001836020036101000a031916815260200191505b5095505050505050600060405180830381600087803b158015613b8057600080fd5b505af1158015613b94573d6000803e3d6000fd5b50506001909901985061396e975050505050505050565b50505050565b60005b60018351038110156136bd57600080848381518110613bcf57fe5b6020026020010151858460010181518110613be657fe5b6020026020010151915091506000613bfe83836140d0565b5090506000613c2e7f0000000000000000000000000000000000000000000000000000000000000000858561335a565b9050600080600080846001600160a01b0316630902f1ac6040518163ffffffff1660e01b815260040160606040518083038186803b158015613c6f57600080fd5b505afa158015613c83573d6000803e3d6000fd5b505050506040513d6060811015613c9957600080fd5b5080516020909101516dffffffffffffffffffffffffffff91821693501690506000806001600160a01b038a811690891614613cd6578284613cd9565b83835b91509150613d37828b6001600160a01b03166370a082318a6040518263ffffffff1660e01b815260040180826001600160a01b03166001600160a01b0316815260200191505060206040518083038186803b15801561147557600080fd5b9550613d4486838361311d565b945050505050600080856001600160a01b0316886001600160a01b031614613d6e57826000613d72565b6000835b91509150600060028c51038a10613d89578a613dbd565b613dbd7f0000000000000000000000000000000000000000000000000000000000000000898e8d60020181518110613a4957fe5b60408051600080825260208201928390527f022c0d9f00000000000000000000000000000000000000000000000000000000835260248201878152604483018790526001600160a01b038086166064850152608060848501908152845160a48601819052969750908c169563022c0d9f958a958a958a9591949193919260c486019290918190849084905b83811015613e60578181015183820152602001613e48565b50505050905090810190601f168015613e8d5780820380516001836020036101000a031916815260200191505b5095505050505050600060405180830381600087803b158015613eaf57600080fd5b505af1158015613ec3573d6000803e3d6000fd5b50506001909b019a50613bb49950505050505050505050565b80820382811115610d32576040805162461bcd60e51b815260206004820152601560248201527f64732d6d6174682d7375622d756e646572666c6f770000000000000000000000604482015290519081900360640190fd5b6000808411613f745760405162461bcd60e51b81526004018080602001828103825260288152602001806145e76028913960400191505060405180910390fd5b600083118015613f845750600082115b613fbf5760405162461bcd60e51b81526004018080602001828103825260248152602001806146a26024913960400191505060405180910390fd5b6000613fe36103e8613fd7868863ffffffff61445416565b9063ffffffff61445416565b90506000613ffd6103e6613fd7868963ffffffff613edc16565b905061401a600182848161400d57fe5b049063ffffffff6144c016565b9695505050505050565b60008084116140645760405162461bcd60e51b81526004018080602001828103825260218152602001806146816021913960400191505060405180910390fd5b6000831180156140745750600082115b6140af5760405162461bcd60e51b81526004018080602001828103825260248152602001806146a26024913960400191505060405180910390fd5b826140c0858463ffffffff61445416565b816140c757fe5b04949350505050565b600080826001600160a01b0316846001600160a01b031614156141245760405162461bcd60e51b815260040180806020018281038252602181526020018061470b6021913960400191505060405180910390fd5b826001600160a01b0316846001600160a01b031610614144578284614147565b83835b90925090506001600160a01b0382166141a7576040805162461bcd60e51b815260206004820152601a60248201527f52756767794c6962726172793a205a45524f5f41444452455353000000000000604482015290519081900360640190fd5b9250929050565b604080517fe6a439050000000000000000000000000000000000000000000000000000000081526001600160a01b03888116600483015287811660248301529151600092839283927f00000000000000000000000000000000000000000000000000000000000000009092169163e6a4390591604480820192602092909190829003018186803b15801561424157600080fd5b505afa158015614255573d6000803e3d6000fd5b505050506040513d602081101561426b57600080fd5b50516001600160a01b0316141561433757604080517fc9c653960000000000000000000000000000000000000000000000000000000081526001600160a01b038a81166004830152898116602483015291517f00000000000000000000000000000000000000000000000000000000000000009092169163c9c65396916044808201926020929091908290030181600087803b15801561430a57600080fd5b505af115801561431e573d6000803e3d6000fd5b505050506040513d602081101561433457600080fd5b50505b6000806143657f00000000000000000000000000000000000000000000000000000000000000008b8b614518565b91509150816000148015614377575080155b1561438757879350869250614447565b6000614394898484614024565b90508781116143e757858110156143dc5760405162461bcd60e51b815260040180806020018281038252602281526020018061472c6022913960400191505060405180910390fd5b889450925082614445565b60006143f4898486614024565b90508981111561440057fe5b8781101561443f5760405162461bcd60e51b81526004018080602001828103825260228152602001806146c66022913960400191505060405180910390fd5b94508793505b505b5050965096945050505050565b600081158061446f5750508082028282828161446c57fe5b04145b610d32576040805162461bcd60e51b815260206004820152601460248201527f64732d6d6174682d6d756c2d6f766572666c6f77000000000000000000000000604482015290519081900360640190fd5b80820182811015610d32576040805162461bcd60e51b815260206004820152601460248201527f64732d6d6174682d6164642d6f766572666c6f77000000000000000000000000604482015290519081900360640190fd5b600080600061452785856140d0565b50905060008061453888888861335a565b6001600160a01b0316630902f1ac6040518163ffffffff1660e01b815260040160606040518083038186803b15801561457057600080fd5b505afa158015614584573d6000803e3d6000fd5b505050506040513d606081101561459a57600080fd5b5080516020909101516dffffffffffffffffffffffffffff91821693501690506001600160a01b03878116908416146145d45780826145d7565b81815b9099909850965050505050505056fe52756767794c6962726172793a20494e53554646494349454e545f4f55545055545f414d4f554e5452756767794c6962726172793a20494e53554646494349454e545f494e5055545f414d4f554e545275676779526f757465723a20494e53554646494349454e545f4f55545055545f414d4f554e545472616e7366657248656c7065723a20415641585f5452414e534645525f4641494c454452756767794c6962726172793a20494e53554646494349454e545f414d4f554e5452756767794c6962726172793a20494e53554646494349454e545f4c49515549444954595275676779526f757465723a20494e53554646494349454e545f415f414d4f554e545275676779526f757465723a204558434553534956455f494e5055545f414d4f554e5452756767794c6962726172793a204944454e544943414c5f4144445245535345535275676779526f757465723a20494e53554646494349454e545f425f414d4f554e545472616e7366657248656c7065723a205452414e534645525f46524f4d5f4641494c4544a2646970667358221220bc43532015d5a59907647af14aa0fb064d4c45d824ce93cae752477779841ccf64736f6c63430006060033",
  "linkReferences": {},
  "deployedLinkReferences": {}
}